{
  "transactions": [
    {
      "hash": "0x106a74aa98f639a7ea57e30a7c2bd073d7e988a47561437ef521c8cb7a0f24d3",
      "transactionType": "CALL",
      "contractName": null,
      "contractAddress": "0x329031e60968c6823056caa8e348bcfc55195a74",
      "function": "manualFulfillWinnerByRandomWord(uint256,uint256)",
      "arguments": [
        "1",
        "12345"
      ],
      "transaction": {
        "from": "0x753dfc03b4d37b3a316d0fe5ab9f677c0d3c20f8",
        "to": "0x329031e60968c6823056caa8e348bcfc55195a74",
        "gas": "0x17d86",
        "value": "0x0",
        "input": "0xa235beea00000000000000000000000000000000000000000000000000000000000000010000000000000000000000000000000000000000000000000000000000003039",
        "nonce": "0x56",
        "chainId": "0x14a34"
      },
      "additionalContracts": [],
      "isFixedGasLimit": false
    },
    {
      "hash": "0xa8ae7f2876d8553010360e562bf6383a78e50f6c80354f88dc3bafeb69943dc9",
      "transactionType": "CALL",
      "contractName": null,
      "contractAddress": "0x329031e60968c6823056caa8e348bcfc55195a74",
      "function": "manualFulfillWinner(uint256,uint256)",
      "arguments": [
        "2",
        "0"
      ],
      "transaction": {
        "from": "0x753dfc03b4d37b3a316d0fe5ab9f677c0d3c20f8",
        "to": "0x329031e60968c6823056caa8e348bcfc55195a74",
        "gas": "0x19284",
        "value": "0x0",
        "input": "0x27bfa7cb00000000000000000000000000000000000000000000000000000000000000020000000000000000000000000000000000000000000000000000000000000000",
        "nonce": "0x57",
        "chainId": "0x14a34"
      },
      "additionalContracts": [],
      "isFixedGasLimit": false
    },
    {
      "hash": "0xab236558e8a1509bc993f64561fd3407ae2545cd2092739e15920a35f98ca809",
      "transactionType": "CALL",
      "contractName": null,
      "contractAddress": "0x329031e60968c6823056caa8e348bcfc55195a74",
      "function": "manualFulfillWinner(uint256,uint256)",
      "arguments": [
        "3",
        "0"
      ],
      "transaction": {
        "from": "0x753dfc03b4d37b3a316d0fe5ab9f677c0d3c20f8",
        "to": "0x329031e60968c6823056caa8e348bcfc55195a74",
        "gas": "0x18505",
        "value": "0x0",
        "input": "0x27bfa7cb00000000000000000000000000000000000000000000000000000000000000030000000000000000000000000000000000000000000000000000000000000000",
        "nonce": "0x58",
        "chainId": "0x14a34"
      },
      "additionalContracts": [],
      "isFixedGasLimit": false
    },
    {
      "hash": "0xf0ad9a593ce5695a3377a21d341cad5308a60313cd145226140a80e41c979d06",
      "transactionType": "CALL",
      "contractName": null,
      "contractAddress": "0x329031e60968c6823056caa8e348bcfc55195a74",
      "function": "performUpkeep(bytes)",
      "arguments": [
        "0x0000000000000000000000000000000000000000000000000000000000000004"
      ],
      "transaction": {
        "from": "0x753dfc03b4d37b3a316d0fe5ab9f677c0d3c20f8",
        "to": "0x329031e60968c6823056caa8e348bcfc55195a74",
        "gas": "0x12920",
        "value": "0x0",
        "input": "0x4585e33b000000000000000000000000000000000000000000000000000000000000002000000000000000000000000000000000000000000000000000000000000000200000000000000000000000000000000000000000000000000000000000000004",
        "nonce": "0x59",
        "chainId": "0x14a34"
      },
      "additionalContracts": [],
      "isFixedGasLimit": false
    },
    {
      "hash": "0x86681d2e6e960c2057b317ecc46ea40c6a2d54214a615fb1e5c7c6ca58c6205c",
      "transactionType": "CALL",
      "contractName": null,
      "contractAddress": "0x329031e60968c6823056caa8e348bcfc55195a74",
      "function": "manualFulfillWinnerByRandomWord(uint256,uint256)",
      "arguments": [
        "5",
        "99"
      ],
      "transaction": {
        "from": "0x753dfc03b4d37b3a316d0fe5ab9f677c0d3c20f8",
        "to": "0x329031e60968c6823056caa8e348bcfc55195a74",
        "gas": "0x17d75",
        "value": "0x0",
        "input": "0xa235beea00000000000000000000000000000000000000000000000000000000000000050000000000000000000000000000000000000000000000000000000000000063",
        "nonce": "0x5a",
        "chainId": "0x14a34"
      },
      "additionalContracts": [],
      "isFixedGasLimit": false
    },
    {
      "hash": "0x7c8124798dae85f2e80f26a55eb4282b698e9485500d57801a905123a77bbaa0",
      "transactionType": "CALL",
      "contractName": null,
      "contractAddress": "0x329031e60968c6823056caa8e348bcfc55195a74",
      "function": "manualFulfillWinner(uint256,uint256)",
      "arguments": [
        "6",
        "0"
      ],
      "transaction": {
        "from": "0x753dfc03b4d37b3a316d0fe5ab9f677c0d3c20f8",
        "to": "0x329031e60968c6823056caa8e348bcfc55195a74",
        "gas": "0x18505",
        "value": "0x0",
        "input": "0x27bfa7cb00000000000000000000000000000000000000000000000000000000000000060000000000000000000000000000000000000000000000000000000000000000",
        "nonce": "0x5b",
        "chainId": "0x14a34"
      },
      "additionalContracts": [],
      "isFixedGasLimit": false
    },
    {
      "hash": "0x5552fea09aa46ef121a87cc001a5492a546422b4fed3a10b89ce15b406051ee3",
      "transactionType": "CALL",
      "contractName": null,
      "contractAddress": "0x329031e60968c6823056caa8e348bcfc55195a74",
      "function": "manualFulfillWinner(uint256,uint256)",
      "arguments": [
        "7",
        "1"
      ],
      "transaction": {
        "from": "0x753dfc03b4d37b3a316d0fe5ab9f677c0d3c20f8",
        "to": "0x329031e60968c6823056caa8e348bcfc55195a74",
        "gas": "0x1a18f",
        "value": "0x0",
        "input": "0x27bfa7cb00000000000000000000000000000000000000000000000000000000000000070000000000000000000000000000000000000000000000000000000000000001",
        "nonce": "0x5c",
        "chainId": "0x14a34"
      },
      "additionalContracts": [],
      "isFixedGasLimit": false
    },
    {
      "hash": "0xf06c64218f0743860c4b9eaefb4ecd1c74a92f9e55eb38b3f8648e301b254179",
      "transactionType": "CALL",
      "contractName": null,
      "contractAddress": "0x329031e60968c6823056caa8e348bcfc55195a74",
      "function": "manualFulfillWinner(uint256,uint256)",
      "arguments": [
        "8",
        "0"
      ],
      "transaction": {
        "from": "0x753dfc03b4d37b3a316d0fe5ab9f677c0d3c20f8",
        "to": "0x329031e60968c6823056caa8e348bcfc55195a74",
        "gas": "0x19676",
        "value": "0x0",
        "input": "0x27bfa7cb00000000000000000000000000000000000000000000000000000000000000080000000000000000000000000000000000000000000000000000000000000000",
        "nonce": "0x5d",
        "chainId": "0x14a34"
      },
      "additionalContracts": [],
      "isFixedGasLimit": false
    }
  ],
  "receipts": [
    {
      "status": "0x1",
      "cumulativeGasUsed": "0x3517bc",
      "logs": [
        {
          "address": "0x329031e60968c6823056caa8e348bcfc55195a74",
          "topics": [
            "0x7286599a58b2822d6e330944038c6d3424134069b04156404050720b942d87ee",
            "0x0000000000000000000000000000000000000000000000000000000000000001",
            "0x000000000000000000000000280ed4fbbbe9ccb25b9de910638efd7920023998"
          ],
          "data": "0x",
          "blockHash": "0x0000000000000000000000000000000000000000000000000000000000000000",
          "blockNumber": "0x24f769f",
          "blockTimestamp": "0x69b24c1e",
          "transactionHash": "0xab236558e8a1509bc993f64561fd3407ae2545cd2092739e15920a35f98ca809",
          "transactionIndex": "0x13",
          "logIndex": "0x85",
          "removed": false
        }
      ],
      "logsBloom": "0x00000008000000002000000000000000000000000000000000000040000000000000000004000000000000000000000000000000000000000000000000040000000000000000000000000000000000000000000000040000000000000000000000000000000000001000000000000000000000000000000000000000000000000000000000000000000000000000000000000000000000000000000000200000000000000000000000000020000000000000000000000000000000000000000000000000000000000000000000000000000000000000000080000000000040000000000000000000000000000000000000000000000000000000000000000020",
      "type": "0x2",
      "transactionHash": "0xab236558e8a1509bc993f64561fd3407ae2545cd2092739e15920a35f98ca809",
      "transactionIndex": "0x13",
      "blockHash": "0x0000000000000000000000000000000000000000000000000000000000000000",
      "blockNumber": "0x24f769f",
      "gasUsed": "0x11438",
      "effectiveGasPrice": "0x5b8d80",
      "blobGasUsed": "0x364c",
      "from": "0x753dfc03b4d37b3a316d0fe5ab9f677c0d3c20f8",
      "to": "0x329031e60968c6823056caa8e348bcfc55195a74",
      "contractAddress": null,
      "daFootprintGasScalar": "0x8b",
      "l1BaseFeeScalar": "0x44d",
      "l1BlobBaseFee": "0x1",
      "l1BlobBaseFeeScalar": "0xa118b",
      "l1Fee": "0x55",
      "l1GasPrice": "0xb",
      "l1GasUsed": "0x640"
    },
    {
      "status": "0x1",
      "cumulativeGasUsed": "0x362af6",
      "logs": [
        {
          "address": "0x329031e60968c6823056caa8e348bcfc55195a74",
          "topics": [
            "0x7286599a58b2822d6e330944038c6d3424134069b04156404050720b942d87ee",
            "0x0000000000000000000000000000000000000000000000000000000000000002",
            "0x000000000000000000000000506888a16695c670579d06a0314cafdd549329fa"
          ],
          "data": "0x",
          "blockHash": "0x0000000000000000000000000000000000000000000000000000000000000000",
          "blockNumber": "0x24f769f",
          "blockTimestamp": "0x69b24c1e",
          "transactionHash": "0xf0ad9a593ce5695a3377a21d341cad5308a60313cd145226140a80e41c979d06",
          "transactionIndex": "0x14",
          "logIndex": "0x86",
          "removed": false
        }
      ],
      "logsBloom": "0x04000008000000002000000000000000000000000000000000000040000000000000000004000000000000000000000000000000000000000000000000000000000000000000000000000000000000000000000000000000000000000000000000000000000000000000000000000000000000000000000000000000000000000000000000000000000000000000000000000000000000000000000000200000000000000000000000000100000020000000000000000000000000000000000000000000000000000000000000000000000000000000000080000000000000000800000000000000000000000000000000000000008000000000000000080000",
      "type": "0x2",
      "transactionHash": "0xf0ad9a593ce5695a3377a21d341cad5308a60313cd145226140a80e41c979d06",
      "transactionIndex": "0x14",
      "blockHash": "0x0000000000000000000000000000000000000000000000000000000000000000",
      "blockNumber": "0x24f769f",
      "gasUsed": "0x1133a",
      "effectiveGasPrice": "0x5b8d80",
      "blobGasUsed": "0x364c",
      "from": "0x753dfc03b4d37b3a316d0fe5ab9f677c0d3c20f8",
      "to": "0x329031e60968c6823056caa8e348bcfc55195a74",
      "contractAddress": null,
      "daFootprintGasScalar": "0x8b",
      "l1BaseFeeScalar": "0x44d",
      "l1BlobBaseFee": "0x1",
      "l1BlobBaseFeeScalar": "0xa118b",
      "l1Fee": "0x55",
      "l1GasPrice": "0xb",
      "l1GasUsed": "0x640"
    },
    {
      "status": "0x1",
      "cumulativeGasUsed": "0x37449b",
      "logs": [
        {
          "address": "0x329031e60968c6823056caa8e348bcfc55195a74",
          "topics": [
            "0xf6fd4f3d1d7320cba3e8ca5d934fe2cf349811fca133170a4527dfdd3fee9b1c",
            "0x0000000000000000000000000000000000000000000000000000000000000003",
            "0x000000000000000000000000753dfc03b4d37b3a316d0fe5ab9f677c0d3c20f8"
          ],
          "data": "0x0000000000000000000000000000000000000000000000000000000000989680",
          "blockHash": "0x0000000000000000000000000000000000000000000000000000000000000000",
          "blockNumber": "0x24f769f",
          "blockTimestamp": "0x69b24c1e",
          "transactionHash": "0xa8ae7f2876d8553010360e562bf6383a78e50f6c80354f88dc3bafeb69943dc9",
          "transactionIndex": "0x15",
          "logIndex": "0x87",
          "removed": false
        },
        {
          "address": "0x329031e60968c6823056caa8e348bcfc55195a74",
          "topics": [
            "0x7286599a58b2822d6e330944038c6d3424134069b04156404050720b942d87ee",
            "0x0000000000000000000000000000000000000000000000000000000000000003",
            "0x000000000000000000000000506888a16695c670579d06a0314cafdd549329fa"
          ],
          "data": "0x",
          "blockHash": "0x0000000000000000000000000000000000000000000000000000000000000000",
          "blockNumber": "0x24f769f",
          "blockTimestamp": "0x69b24c1e",
          "transactionHash": "0xa8ae7f2876d8553010360e562bf6383a78e50f6c80354f88dc3bafeb69943dc9",
          "transactionIndex": "0x15",
          "logIndex": "0x88",
          "removed": false
        }
      ],
      "logsBloom": "0x00000008000000002000000000000000000000000000000000000040000000004000000004000000000000000000000000000000020000000000000000000000000000000000000000000000020000000000000000000000000000000000000000000000000000000000000000000000000000000000000000000000000000000000000000000000000000000000000000000000000000000000000000200000000000000000000000000000000020000000000000800000000000000000400000000000000000000000020800000000000000002000000080000000000000000800000000000000000000000000000000000000040000000000000000080000",
      "type": "0x2",
      "transactionHash": "0xa8ae7f2876d8553010360e562bf6383a78e50f6c80354f88dc3bafeb69943dc9",
      "transactionIndex": "0x15",
      "blockHash": "0x0000000000000000000000000000000000000000000000000000000000000000",
      "blockNumber": "0x24f769f",
      "gasUsed": "0x119a5",
      "effectiveGasPrice": "0x5b8d80",
      "blobGasUsed": "0x364c",
      "from": "0x753dfc03b4d37b3a316d0fe5ab9f677c0d3c20f8",
      "to": "0x329031e60968c6823056caa8e348bcfc55195a74",
      "contractAddress": null,
      "daFootprintGasScalar": "0x8b",
      "l1BaseFeeScalar": "0x44d",
      "l1BlobBaseFee": "0x1",
      "l1BlobBaseFeeScalar": "0xa118b",
      "l1Fee": "0x55",
      "l1GasPrice": "0xb",
      "l1GasUsed": "0x640"
    },
    {
      "status": "0x1",
      "cumulativeGasUsed": "0x380fc5",
      "logs": [
        {
          "address": "0x329031e60968c6823056caa8e348bcfc55195a74",
          "topics": [
            "0xf6fd4f3d1d7320cba3e8ca5d934fe2cf349811fca133170a4527dfdd3fee9b1c",
            "0x0000000000000000000000000000000000000000000000000000000000000004",
            "0x000000000000000000000000753dfc03b4d37b3a316d0fe5ab9f677c0d3c20f8"
          ],
          "data": "0x0000000000000000000000000000000000000000000000000000000000989680",
          "blockHash": "0x0000000000000000000000000000000000000000000000000000000000000000",
          "blockNumber": "0x24f769f",
          "blockTimestamp": "0x69b24c1e",
          "transactionHash": "0x106a74aa98f639a7ea57e30a7c2bd073d7e988a47561437ef521c8cb7a0f24d3",
          "transactionIndex": "0x16",
          "logIndex": "0x89",
          "removed": false
        },
        {
          "address": "0x329031e60968c6823056caa8e348bcfc55195a74",
          "topics": [
            "0xf12666f36b319b66966915c4f65f0541658d63d773edbfee3f539dc3a454fe82",
            "0x0000000000000000000000000000000000000000000000000000000000000004"
          ],
          "data": "0x",
          "blockHash": "0x0000000000000000000000000000000000000000000000000000000000000000",
          "blockNumber": "0x24f769f",
          "blockTimestamp": "0x69b24c1e",
          "transactionHash": "0x106a74aa98f639a7ea57e30a7c2bd073d7e988a47561437ef521c8cb7a0f24d3",
          "transactionIndex": "0x16",
          "logIndex": "0x8a",
          "removed": false
        }
      ],
      "logsBloom": "0x0000000800000000000000000000000000000000000000000000000000000000400000000400000000000000000000000000000000000000000000000000000000010000000000000000000002000000000000000000000000000000000000000800000000040000000000000000000000000000000000000000000000000100000000000000000000000000000000000000000000000000000000000000000000000000000000000000000000000000000000000000000000200000000000000000000000000000000002080000000000000000a000000080000000000000000000000000000000000000000000000000000000040000000000000000000000",
      "type": "0x2",
      "transactionHash": "0x106a74aa98f639a7ea57e30a7c2bd073d7e988a47561437ef521c8cb7a0f24d3",
      "transactionIndex": "0x16",
      "blockHash": "0x0000000000000000000000000000000000000000000000000000000000000000",
      "blockNumber": "0x24f769f",
      "gasUsed": "0xcb2a",
      "effectiveGasPrice": "0x5b8d80",
      "blobGasUsed": "0x364c",
      "from": "0x753dfc03b4d37b3a316d0fe5ab9f677c0d3c20f8",
      "to": "0x329031e60968c6823056caa8e348bcfc55195a74",
      "contractAddress": null,
      "daFootprintGasScalar": "0x8b",
      "l1BaseFeeScalar": "0x44d",
      "l1BlobBaseFee": "0x1",
      "l1BlobBaseFeeScalar": "0xa118b",
      "l1Fee": "0x55",
      "l1GasPrice": "0xb",
      "l1GasUsed": "0x640"
    },
    {
      "status": "0x1",
      "cumulativeGasUsed": "0x416650",
      "logs": [
        {
          "address": "0x329031e60968c6823056caa8e348bcfc55195a74",
          "topics": [
            "0x7286599a58b2822d6e330944038c6d3424134069b04156404050720b942d87ee",
            "0x0000000000000000000000000000000000000000000000000000000000000005",
            "0x000000000000000000000000280ed4fbbbe9ccb25b9de910638efd7920023998"
          ],
          "data": "0x",
          "blockHash": "0x0000000000000000000000000000000000000000000000000000000000000000",
          "blockNumber": "0x24f769f",
          "blockTimestamp": "0x69b24c1e",
          "transactionHash": "0x7c8124798dae85f2e80f26a55eb4282b698e9485500d57801a905123a77bbaa0",
          "transactionIndex": "0x19",
          "logIndex": "0x8f",
          "removed": false
        }
      ],
      "logsBloom": "0x00000008000000002000000000000000000000000000000000000040000000000000000004000000000000000000000000000000000000000000000000000000000010000000000000000000000000000000000000000000000000000000000000000000000000001000000000000000000000000000000000000000000000000000000000000000000000000000001000000800000000000000000000200000000000000000000000000020000000000000000000000000000000000000000000000000000000000000000000000000000000000000000080000000000000000000000000000000000000000000000000000000000000000000000000000020",
      "type": "0x2",
      "transactionHash": "0x7c8124798dae85f2e80f26a55eb4282b698e9485500d57801a905123a77bbaa0",
      "transactionIndex": "0x19",
      "blockHash": "0x0000000000000000000000000000000000000000000000000000000000000000",
      "blockNumber": "0x24f769f",
      "gasUsed": "0x1142c",
      "effectiveGasPrice": "0x5b8d80",
      "blobGasUsed": "0x364c",
      "from": "0x753dfc03b4d37b3a316d0fe5ab9f677c0d3c20f8",
      "to": "0x329031e60968c6823056caa8e348bcfc55195a74",
      "contractAddress": null,
      "daFootprintGasScalar": "0x8b",
      "l1BaseFeeScalar": "0x44d",
      "l1BlobBaseFee": "0x1",
      "l1BlobBaseFeeScalar": "0xa118b",
      "l1Fee": "0x55",
      "l1GasPrice": "0xb",
      "l1GasUsed": "0x640"
    },
    {
      "status": "0x1",
      "cumulativeGasUsed": "0x427ff5",
      "logs": [
        {
          "address": "0x329031e60968c6823056caa8e348bcfc55195a74",
          "topics": [
            "0xf6fd4f3d1d7320cba3e8ca5d934fe2cf349811fca133170a4527dfdd3fee9b1c",
            "0x0000000000000000000000000000000000000000000000000000000000000006",
            "0x000000000000000000000000753dfc03b4d37b3a316d0fe5ab9f677c0d3c20f8"
          ],
          "data": "0x0000000000000000000000000000000000000000000000000000000000989680",
          "blockHash": "0x0000000000000000000000000000000000000000000000000000000000000000",
          "blockNumber": "0x24f769f",
          "blockTimestamp": "0x69b24c1e",
          "transactionHash": "0x86681d2e6e960c2057b317ecc46ea40c6a2d54214a615fb1e5c7c6ca58c6205c",
          "transactionIndex": "0x1a",
          "logIndex": "0x90",
          "removed": false
        },
        {
          "address": "0x329031e60968c6823056caa8e348bcfc55195a74",
          "topics": [
            "0x7286599a58b2822d6e330944038c6d3424134069b04156404050720b942d87ee",
            "0x0000000000000000000000000000000000000000000000000000000000000006",
            "0x000000000000000000000000506888a16695c670579d06a0314cafdd549329fa"
          ],
          "data": "0x",
          "blockHash": "0x0000000000000000000000000000000000000000000000000000000000000000",
          "blockNumber": "0x24f769f",
          "blockTimestamp": "0x69b24c1e",
          "transactionHash": "0x86681d2e6e960c2057b317ecc46ea40c6a2d54214a615fb1e5c7c6ca58c6205c",
          "transactionIndex": "0x1a",
          "logIndex": "0x91",
          "removed": false
        }
      ],
      "logsBloom": "0x00000008000000002000000000000000000000000000000000000040000000004000000004000000000000000000000000000000000400000000000000000000000000000000000000000000020000000000000000000000000000000000000000000000000000000000000000000000000000000000000000000000000000000000000400000000000000000000000000000000000000000000000000200000000000000000000000000000000020000000000000000000000000080000000000000000000000000000020800000000000000002000000080000000000000000800000000000000000000000000000000000000040000000000000000080000",
      "type": "0x2",
      "transactionHash": "0x86681d2e6e960c2057b317ecc46ea40c6a2d54214a615fb1e5c7c6ca58c6205c",
      "transactionIndex": "0x1a",
      "blockHash": "0x0000000000000000000000000000000000000000000000000000000000000000",
      "blockNumber": "0x24f769f",
      "gasUsed": "0x119a5",
      "effectiveGasPrice": "0x5b8d80",
      "blobGasUsed": "0x364c",
      "from": "0x753dfc03b4d37b3a316d0fe5ab9f677c0d3c20f8",
      "to": "0x329031e60968c6823056caa8e348bcfc55195a74",
      "contractAddress": null,
      "daFootprintGasScalar": "0x8b",
      "l1BaseFeeScalar": "0x44d",
      "l1BlobBaseFee": "0x1",
      "l1BlobBaseFeeScalar": "0xa118b",
      "l1Fee": "0x55",
      "l1GasPrice": "0xb",
      "l1GasUsed": "0x640"
    },
    {
      "status": "0x1",
      "cumulativeGasUsed": "0x5cc2d3",
      "logs": [
        {
          "address": "0x19d59e6940fe3b7ad1c12975f0c0dff3c13a063e",
          "topics": [
            "0xddf252ad1be2c89b69c2b068fc378daa952ba7f163c4a11628f55a4df523b3ef",
            "0x000000000000000000000000329031e60968c6823056caa8e348bcfc55195a74",
            "0x000000000000000000000000280ed4fbbbe9ccb25b9de910638efd7920023998",
            "0x0000000000000000000000000000000000000000000000000000000000000001"
          ],
          "data": "0x",
          "blockHash": "0x0000000000000000000000000000000000000000000000000000000000000000",
          "blockNumber": "0x24f769f",
          "blockTimestamp": "0x69b24c1e",
          "transactionHash": "0xf06c64218f0743860c4b9eaefb4ecd1c74a92f9e55eb38b3f8648e301b254179",
          "transactionIndex": "0x26",
          "logIndex": "0xad",
          "removed": false
        },
        {
          "address": "0x329031e60968c6823056caa8e348bcfc55195a74",
          "topics": [
            "0x7286599a58b2822d6e330944038c6d3424134069b04156404050720b942d87ee",
            "0x0000000000000000000000000000000000000000000000000000000000000007",
            "0x000000000000000000000000280ed4fbbbe9ccb25b9de910638efd7920023998"
          ],
          "data": "0x",
          "blockHash": "0x0000000000000000000000000000000000000000000000000000000000000000",
          "blockNumber": "0x24f769f",
          "blockTimestamp": "0x69b24c1e",
          "transactionHash": "0xf06c64218f0743860c4b9eaefb4ecd1c74a92f9e55eb38b3f8648e301b254179",
          "transactionIndex": "0x26",
          "logIndex": "0xae",
          "removed": false
        }
      ],
      "logsBloom": "0x00000008000000002000000000000000000000000000000000000040000000000000000004000000000002000000000000001000000000000000000000040800000020000000000000800008000000000000000000040000000000000000000000000000000000001000000000000000000000000000000000000010000000000000000000000000000000000000000000000000000000000000000000200000000000000000000000000020000000000000000000000000000000000000000000000002000000000000000000000000000000000000000080000100020040040000000000000000000008000000000000000000000000000000000000000020",
      "type": "0x2",
      "transactionHash": "0xf06c64218f0743860c4b9eaefb4ecd1c74a92f9e55eb38b3f8648e301b254179",
      "transactionIndex": "0x26",
      "blockHash": "0x0000000000000000000000000000000000000000000000000000000000000000",
      "blockNumber": "0x24f769f",
      "gasUsed": "0x12e4f",
      "effectiveGasPrice": "0x5b8d80",
      "blobGasUsed": "0x364c",
      "from": "0x753dfc03b4d37b3a316d0fe5ab9f677c0d3c20f8",
      "to": "0x329031e60968c6823056caa8e348bcfc55195a74",
      "contractAddress": null,
      "daFootprintGasScalar": "0x8b",
      "l1BaseFeeScalar": "0x44d",
      "l1BlobBaseFee": "0x1",
      "l1BlobBaseFeeScalar": "0xa118b",
      "l1Fee": "0x7d",
      "l1GasPrice": "0xb",
      "l1GasUsed": "0x640"
    },
    {
      "status": "0x1",
      "cumulativeGasUsed": "0x5de919",
      "logs": [
        {
          "address": "0x19d59e6940fe3b7ad1c12975f0c0dff3c13a063e",
          "topics": [
            "0xddf252ad1be2c89b69c2b068fc378daa952ba7f163c4a11628f55a4df523b3ef",
            "0x000000000000000000000000329031e60968c6823056caa8e348bcfc55195a74",
            "0x000000000000000000000000753dfc03b4d37b3a316d0fe5ab9f677c0d3c20f8",
            "0x0000000000000000000000000000000000000000000000000000000000000002"
          ],
          "data": "0x",
          "blockHash": "0x0000000000000000000000000000000000000000000000000000000000000000",
          "blockNumber": "0x24f769f",
          "blockTimestamp": "0x69b24c1e",
          "transactionHash": "0x5552fea09aa46ef121a87cc001a5492a546422b4fed3a10b89ce15b406051ee3",
          "transactionIndex": "0x27",
          "logIndex": "0xaf",
          "removed": false
        },
        {
          "address": "0x329031e60968c6823056caa8e348bcfc55195a74",
          "topics": [
            "0xf6fd4f3d1d7320cba3e8ca5d934fe2cf349811fca133170a4527dfdd3fee9b1c",
            "0x0000000000000000000000000000000000000000000000000000000000000008",
            "0x000000000000000000000000753dfc03b4d37b3a316d0fe5ab9f677c0d3c20f8"
          ],
          "data": "0x0000000000000000000000000000000000000000000000000000000000000002",
          "blockHash": "0x0000000000000000000000000000000000000000000000000000000000000000",
          "blockNumber": "0x24f769f",
          "blockTimestamp": "0x69b24c1e",
          "transactionHash": "0x5552fea09aa46ef121a87cc001a5492a546422b4fed3a10b89ce15b406051ee3",
          "transactionIndex": "0x27",
          "logIndex": "0xb0",
          "removed": false
        },
        {
          "address": "0x329031e60968c6823056caa8e348bcfc55195a74",
          "topics": [
            "0x7286599a58b2822d6e330944038c6d3424134069b04156404050720b942d87ee",
            "0x0000000000000000000000000000000000000000000000000000000000000008",
            "0x000000000000000000000000506888a16695c670579d06a0314cafdd549329fa"
          ],
          "data": "0x",
          "blockHash": "0x0000000000000000000000000000000000000000000000000000000000000000",
          "blockNumber": "0x24f769f",
          "blockTimestamp": "0x69b24c1e",
          "transactionHash": "0x5552fea09aa46ef121a87cc001a5492a546422b4fed3a10b89ce15b406051ee3",
          "transactionIndex": "0x27",
          "logIndex": "0xb1",
          "removed": false
        }
      ],
      "logsBloom": "0x04000008000000002000000000000000000000000000000000000040000000004000000004000000000002000000000000000000000080000000000000000800000000000000000000800008020000000000000000000000000000000000000000000000000000000000000000000000000000000000000000000010000000000080000000000000000000000000000000000000000000000000000000200000000000000000000000000100000020000000000000000000000000000000000040000002000000000000020800000000000000002000000080000000020000040800000000000000000008000000000000000000048000000000000000080000",
      "type": "0x2",
      "transactionHash": "0x5552fea09aa46ef121a87cc001a5492a546422b4fed3a10b89ce15b406051ee3",
      "transactionIndex": "0x27",
      "blockHash": "0x0000000000000000000000000000000000000000000000000000000000000000",
      "blockNumber": "0x24f769f",
      "gasUsed": "0x12646",
      "effectiveGasPrice": "0x5b8d80",
      "blobGasUsed": "0x364c",
      "from": "0x753dfc03b4d37b3a316d0fe5ab9f677c0d3c20f8",
      "to": "0x329031e60968c6823056caa8e348bcfc55195a74",
      "contractAddress": null,
      "daFootprintGasScalar": "0x8b",
      "l1BaseFeeScalar": "0x44d",
      "l1BlobBaseFee": "0x1",
      "l1BlobBaseFeeScalar": "0xa118b",
      "l1Fee": "0x7d",
      "l1GasPrice": "0xb",
      "l1GasUsed": "0x640"
    }
  ],
  "libraries": [],
  "pending": [],
  "returns": {},
  "timestamp": 1773292573658,
  "chain": 84532,
  "commit": "23ccc93"
}