{
  "transactions": [
    {
      "hash": "0x03879a2503538e05fca4324c6b5704b6857a767fbb645c361fe04a78825fa24c",
      "transactionType": "CALL",
      "contractName": null,
      "contractAddress": "0x49f49cfe89050a8f8e48d3a31e33a8e26bc80d1d",
      "function": "mint(address,uint256)",
      "arguments": [
        "0x506888a16695c670579D06A0314CaFdd549329fA",
        "1000000000"
      ],
      "transaction": {
        "from": "0x753dfc03b4d37b3a316d0fe5ab9f677c0d3c20f8",
        "to": "0x49f49cfe89050a8f8e48d3a31e33a8e26bc80d1d",
        "gas": "0x10990",
        "value": "0x0",
        "input": "0x40c10f19000000000000000000000000506888a16695c670579d06a0314cafdd549329fa000000000000000000000000000000000000000000000000000000003b9aca00",
        "nonce": "0x41",
        "chainId": "0x14a34"
      },
      "additionalContracts": [],
      "isFixedGasLimit": false
    },
    {
      "hash": "0xc1f31352bbce1d2847818d9fa71eb087f3addb4537037a52629ed341f2737470",
      "transactionType": "CALL",
      "contractName": null,
      "contractAddress": "0x49f49cfe89050a8f8e48d3a31e33a8e26bc80d1d",
      "function": "mint(address,uint256)",
      "arguments": [
        "0x280ED4fbbbE9CCB25b9dE910638EFd7920023998",
        "1000000000"
      ],
      "transaction": {
        "from": "0x753dfc03b4d37b3a316d0fe5ab9f677c0d3c20f8",
        "to": "0x49f49cfe89050a8f8e48d3a31e33a8e26bc80d1d",
        "gas": "0x10990",
        "value": "0x0",
        "input": "0x40c10f19000000000000000000000000280ed4fbbbe9ccb25b9de910638efd7920023998000000000000000000000000000000000000000000000000000000003b9aca00",
        "nonce": "0x42",
        "chainId": "0x14a34"
      },
      "additionalContracts": [],
      "isFixedGasLimit": false
    },
    {
      "hash": "0x2bfd0052a2acfa8fe3eb4d8d8838281fd10605e2946d5ddeda088f7b66c493a9",
      "transactionType": "CALL",
      "contractName": null,
      "contractAddress": "0x329031e60968c6823056caa8e348bcfc55195a74",
      "function": "proposeFeeChange(uint256)",
      "arguments": [
        "250"
      ],
      "transaction": {
        "from": "0x753dfc03b4d37b3a316d0fe5ab9f677c0d3c20f8",
        "to": "0x329031e60968c6823056caa8e348bcfc55195a74",
        "gas": "0x18fdf",
        "value": "0x0",
        "input": "0x4fe0c45100000000000000000000000000000000000000000000000000000000000000fa",
        "nonce": "0x43",
        "chainId": "0x14a34"
      },
      "additionalContracts": [],
      "isFixedGasLimit": false
    },
    {
      "hash": "0xb10a371173fc435d92d8112ccdd20452f1c22db71866864f5e5965977f5faee9",
      "transactionType": "CALL",
      "contractName": null,
      "contractAddress": "0x49f49cfe89050a8f8e48d3a31e33a8e26bc80d1d",
      "function": "approve(address,uint256)",
      "arguments": [
        "0x329031e60968C6823056cAa8e348BCFc55195A74",
        "10000000"
      ],
      "transaction": {
        "from": "0x753dfc03b4d37b3a316d0fe5ab9f677c0d3c20f8",
        "to": "0x49f49cfe89050a8f8e48d3a31e33a8e26bc80d1d",
        "gas": "0xeddf",
        "value": "0x0",
        "input": "0x095ea7b3000000000000000000000000329031e60968c6823056caa8e348bcfc55195a740000000000000000000000000000000000000000000000000000000000989680",
        "nonce": "0x44",
        "chainId": "0x14a34"
      },
      "additionalContracts": [],
      "isFixedGasLimit": false
    },
    {
      "hash": "0x4efd76448962ec26f62cd73a9583b5f30c1fee6a2baa8ea734544f02cb637be4",
      "transactionType": "CALL",
      "contractName": null,
      "contractAddress": "0x329031e60968c6823056caa8e348bcfc55195a74",
      "function": "createRaffleERC20(address,uint256,uint256,uint256,uint256)",
      "arguments": [
        "0x49f49CfE89050a8F8E48d3A31E33a8e26Bc80D1d",
        "10000000",
        "1000000",
        "2",
        "180"
      ],
      "transaction": {
        "from": "0x753dfc03b4d37b3a316d0fe5ab9f677c0d3c20f8",
        "to": "0x329031e60968c6823056caa8e348bcfc55195a74",
        "gas": "0x441bd",
        "value": "0x0",
        "input": "0xdb2b8c0900000000000000000000000049f49cfe89050a8f8e48d3a31e33a8e26bc80d1d000000000000000000000000000000000000000000000000000000000098968000000000000000000000000000000000000000000000000000000000000f4240000000000000000000000000000000000000000000000000000000000000000200000000000000000000000000000000000000000000000000000000000000b4",
        "nonce": "0x45",
        "chainId": "0x14a34"
      },
      "additionalContracts": [],
      "isFixedGasLimit": false
    },
    {
      "hash": "0xcec2cbfb6968481060f02d78f3f825f34947e01010b5ae7a43760ca3adbcabab",
      "transactionType": "CALL",
      "contractName": null,
      "contractAddress": "0x49f49cfe89050a8f8e48d3a31e33a8e26bc80d1d",
      "function": "approve(address,uint256)",
      "arguments": [
        "0x329031e60968C6823056cAa8e348BCFc55195A74",
        "1000000"
      ],
      "transaction": {
        "from": "0x506888a16695c670579d06a0314cafdd549329fa",
        "to": "0x49f49cfe89050a8f8e48d3a31e33a8e26bc80d1d",
        "gas": "0xeddf",
        "value": "0x0",
        "input": "0x095ea7b3000000000000000000000000329031e60968c6823056caa8e348bcfc55195a7400000000000000000000000000000000000000000000000000000000000f4240",
        "nonce": "0x0",
        "chainId": "0x14a34"
      },
      "additionalContracts": [],
      "isFixedGasLimit": false
    },
    {
      "hash": "0x282da051ee613cfb704592a304d7b8822d5f70e5cfd62e70ad7f64102e19acf3",
      "transactionType": "CALL",
      "contractName": null,
      "contractAddress": "0x329031e60968c6823056caa8e348bcfc55195a74",
      "function": "enterRaffle(uint256,uint256)",
      "arguments": [
        "1",
        "1"
      ],
      "transaction": {
        "from": "0x506888a16695c670579d06a0314cafdd549329fa",
        "to": "0x329031e60968c6823056caa8e348bcfc55195a74",
        "gas": "0x21440",
        "value": "0x0",
        "input": "0xec55612500000000000000000000000000000000000000000000000000000000000000010000000000000000000000000000000000000000000000000000000000000001",
        "nonce": "0x1",
        "chainId": "0x14a34"
      },
      "additionalContracts": [],
      "isFixedGasLimit": false
    },
    {
      "hash": "0xacfbcacb5adc88fd8adc76c4548f880daf1e9bd58bc2c94b8979336a7f48e0e6",
      "transactionType": "CALL",
      "contractName": null,
      "contractAddress": "0x49f49cfe89050a8f8e48d3a31e33a8e26bc80d1d",
      "function": "approve(address,uint256)",
      "arguments": [
        "0x329031e60968C6823056cAa8e348BCFc55195A74",
        "1000000"
      ],
      "transaction": {
        "from": "0x280ed4fbbbe9ccb25b9de910638efd7920023998",
        "to": "0x49f49cfe89050a8f8e48d3a31e33a8e26bc80d1d",
        "gas": "0xeddf",
        "value": "0x0",
        "input": "0x095ea7b3000000000000000000000000329031e60968c6823056caa8e348bcfc55195a7400000000000000000000000000000000000000000000000000000000000f4240",
        "nonce": "0x0",
        "chainId": "0x14a34"
      },
      "additionalContracts": [],
      "isFixedGasLimit": false
    },
    {
      "hash": "0x4860785034a37e56eb063f1ed46cd4e6c24775b837c489288206fa252070479b",
      "transactionType": "CALL",
      "contractName": null,
      "contractAddress": "0x329031e60968c6823056caa8e348bcfc55195a74",
      "function": "enterRaffle(uint256,uint256)",
      "arguments": [
        "1",
        "1"
      ],
      "transaction": {
        "from": "0x280ed4fbbbe9ccb25b9de910638efd7920023998",
        "to": "0x329031e60968c6823056caa8e348bcfc55195a74",
        "gas": "0x1b7fd",
        "value": "0x0",
        "input": "0xec55612500000000000000000000000000000000000000000000000000000000000000010000000000000000000000000000000000000000000000000000000000000001",
        "nonce": "0x1",
        "chainId": "0x14a34"
      },
      "additionalContracts": [],
      "isFixedGasLimit": false
    },
    {
      "hash": "0xe4293b660f3637471c8cd85eaf80573408607d8ad6b5e27e52ad7200fab7e7c2",
      "transactionType": "CALL",
      "contractName": null,
      "contractAddress": "0x49f49cfe89050a8f8e48d3a31e33a8e26bc80d1d",
      "function": "approve(address,uint256)",
      "arguments": [
        "0x329031e60968C6823056cAa8e348BCFc55195A74",
        "10000000"
      ],
      "transaction": {
        "from": "0x753dfc03b4d37b3a316d0fe5ab9f677c0d3c20f8",
        "to": "0x49f49cfe89050a8f8e48d3a31e33a8e26bc80d1d",
        "gas": "0xeddf",
        "value": "0x0",
        "input": "0x095ea7b3000000000000000000000000329031e60968c6823056caa8e348bcfc55195a740000000000000000000000000000000000000000000000000000000000989680",
        "nonce": "0x46",
        "chainId": "0x14a34"
      },
      "additionalContracts": [],
      "isFixedGasLimit": false
    },
    {
      "hash": "0x7ccec3ab298bf5ae243af0fdddc5c5a134d2445b9a6b30f1752f8590044ee9ce",
      "transactionType": "CALL",
      "contractName": null,
      "contractAddress": "0x329031e60968c6823056caa8e348bcfc55195a74",
      "function": "createRaffleERC20(address,uint256,uint256,uint256,uint256)",
      "arguments": [
        "0x49f49CfE89050a8F8E48d3A31E33a8e26Bc80D1d",
        "10000000",
        "1000000",
        "2",
        "180"
      ],
      "transaction": {
        "from": "0x753dfc03b4d37b3a316d0fe5ab9f677c0d3c20f8",
        "to": "0x329031e60968c6823056caa8e348bcfc55195a74",
        "gas": "0x38936",
        "value": "0x0",
        "input": "0xdb2b8c0900000000000000000000000049f49cfe89050a8f8e48d3a31e33a8e26bc80d1d000000000000000000000000000000000000000000000000000000000098968000000000000000000000000000000000000000000000000000000000000f4240000000000000000000000000000000000000000000000000000000000000000200000000000000000000000000000000000000000000000000000000000000b4",
        "nonce": "0x47",
        "chainId": "0x14a34"
      },
      "additionalContracts": [],
      "isFixedGasLimit": false
    },
    {
      "hash": "0x0a4f708eb9c8211145a8bf91ead1997b29996dd1092dcb0d19d4ad37173e2385",
      "transactionType": "CALL",
      "contractName": null,
      "contractAddress": "0x49f49cfe89050a8f8e48d3a31e33a8e26bc80d1d",
      "function": "approve(address,uint256)",
      "arguments": [
        "0x329031e60968C6823056cAa8e348BCFc55195A74",
        "1000000"
      ],
      "transaction": {
        "from": "0x506888a16695c670579d06a0314cafdd549329fa",
        "to": "0x49f49cfe89050a8f8e48d3a31e33a8e26bc80d1d",
        "gas": "0xeddf",
        "value": "0x0",
        "input": "0x095ea7b3000000000000000000000000329031e60968c6823056caa8e348bcfc55195a7400000000000000000000000000000000000000000000000000000000000f4240",
        "nonce": "0x2",
        "chainId": "0x14a34"
      },
      "additionalContracts": [],
      "isFixedGasLimit": false
    },
    {
      "hash": "0x2a5f0445bb03efb92e94b6863cd95c951d3ff6e4c6d1b7a2196cccc57a0be2c0",
      "transactionType": "CALL",
      "contractName": null,
      "contractAddress": "0x329031e60968c6823056caa8e348bcfc55195a74",
      "function": "enterRaffle(uint256,uint256)",
      "arguments": [
        "2",
        "1"
      ],
      "transaction": {
        "from": "0x506888a16695c670579d06a0314cafdd549329fa",
        "to": "0x329031e60968c6823056caa8e348bcfc55195a74",
        "gas": "0x21440",
        "value": "0x0",
        "input": "0xec55612500000000000000000000000000000000000000000000000000000000000000020000000000000000000000000000000000000000000000000000000000000001",
        "nonce": "0x3",
        "chainId": "0x14a34"
      },
      "additionalContracts": [],
      "isFixedGasLimit": false
    },
    {
      "hash": "0x8c734721e39deaf3e1271826c50af7a17cf5d12819bc9e7aae526e11597ed049",
      "transactionType": "CALL",
      "contractName": null,
      "contractAddress": "0x49f49cfe89050a8f8e48d3a31e33a8e26bc80d1d",
      "function": "approve(address,uint256)",
      "arguments": [
        "0x329031e60968C6823056cAa8e348BCFc55195A74",
        "1000000"
      ],
      "transaction": {
        "from": "0x280ed4fbbbe9ccb25b9de910638efd7920023998",
        "to": "0x49f49cfe89050a8f8e48d3a31e33a8e26bc80d1d",
        "gas": "0xeddf",
        "value": "0x0",
        "input": "0x095ea7b3000000000000000000000000329031e60968c6823056caa8e348bcfc55195a7400000000000000000000000000000000000000000000000000000000000f4240",
        "nonce": "0x2",
        "chainId": "0x14a34"
      },
      "additionalContracts": [],
      "isFixedGasLimit": false
    },
    {
      "hash": "0x10605318b36048003e0db0f12f46b4bbd0cadfdc9903fc64a2c2637d2dbcfe31",
      "transactionType": "CALL",
      "contractName": null,
      "contractAddress": "0x329031e60968c6823056caa8e348bcfc55195a74",
      "function": "enterRaffle(uint256,uint256)",
      "arguments": [
        "2",
        "1"
      ],
      "transaction": {
        "from": "0x280ed4fbbbe9ccb25b9de910638efd7920023998",
        "to": "0x329031e60968c6823056caa8e348bcfc55195a74",
        "gas": "0x1b7fd",
        "value": "0x0",
        "input": "0xec55612500000000000000000000000000000000000000000000000000000000000000020000000000000000000000000000000000000000000000000000000000000001",
        "nonce": "0x3",
        "chainId": "0x14a34"
      },
      "additionalContracts": [],
      "isFixedGasLimit": false
    },
    {
      "hash": "0xab57b5a9bc69ee855d44197d41d162e335b8db3a94c940eb83f707ddabcd858a",
      "transactionType": "CALL",
      "contractName": null,
      "contractAddress": "0x49f49cfe89050a8f8e48d3a31e33a8e26bc80d1d",
      "function": "approve(address,uint256)",
      "arguments": [
        "0x329031e60968C6823056cAa8e348BCFc55195A74",
        "10000000"
      ],
      "transaction": {
        "from": "0x753dfc03b4d37b3a316d0fe5ab9f677c0d3c20f8",
        "to": "0x49f49cfe89050a8f8e48d3a31e33a8e26bc80d1d",
        "gas": "0xeddf",
        "value": "0x0",
        "input": "0x095ea7b3000000000000000000000000329031e60968c6823056caa8e348bcfc55195a740000000000000000000000000000000000000000000000000000000000989680",
        "nonce": "0x48",
        "chainId": "0x14a34"
      },
      "additionalContracts": [],
      "isFixedGasLimit": false
    },
    {
      "hash": "0xbd4f7408deacbe9d3f5f595f1f56524d311ea32b61fed76c41a0a3f41c5c430b",
      "transactionType": "CALL",
      "contractName": null,
      "contractAddress": "0x329031e60968c6823056caa8e348bcfc55195a74",
      "function": "createRaffleERC20(address,uint256,uint256,uint256,uint256)",
      "arguments": [
        "0x49f49CfE89050a8F8E48d3A31E33a8e26Bc80D1d",
        "10000000",
        "1000000",
        "10",
        "180"
      ],
      "transaction": {
        "from": "0x753dfc03b4d37b3a316d0fe5ab9f677c0d3c20f8",
        "to": "0x329031e60968c6823056caa8e348bcfc55195a74",
        "gas": "0x38936",
        "value": "0x0",
        "input": "0xdb2b8c0900000000000000000000000049f49cfe89050a8f8e48d3a31e33a8e26bc80d1d000000000000000000000000000000000000000000000000000000000098968000000000000000000000000000000000000000000000000000000000000f4240000000000000000000000000000000000000000000000000000000000000000a00000000000000000000000000000000000000000000000000000000000000b4",
        "nonce": "0x49",
        "chainId": "0x14a34"
      },
      "additionalContracts": [],
      "isFixedGasLimit": false
    },
    {
      "hash": "0xe558002edbe099cd25db6b135ffd21116a4aa33879b935b0bd94bbd10a9c4bec",
      "transactionType": "CALL",
      "contractName": null,
      "contractAddress": "0x49f49cfe89050a8f8e48d3a31e33a8e26bc80d1d",
      "function": "approve(address,uint256)",
      "arguments": [
        "0x329031e60968C6823056cAa8e348BCFc55195A74",
        "2000000"
      ],
      "transaction": {
        "from": "0x506888a16695c670579d06a0314cafdd549329fa",
        "to": "0x49f49cfe89050a8f8e48d3a31e33a8e26bc80d1d",
        "gas": "0xeddf",
        "value": "0x0",
        "input": "0x095ea7b3000000000000000000000000329031e60968c6823056caa8e348bcfc55195a7400000000000000000000000000000000000000000000000000000000001e8480",
        "nonce": "0x4",
        "chainId": "0x14a34"
      },
      "additionalContracts": [],
      "isFixedGasLimit": false
    },
    {
      "hash": "0x55265f2078d4ebac826df49114064ad1d9ea5b99a6b659b61a886942ff96bc46",
      "transactionType": "CALL",
      "contractName": null,
      "contractAddress": "0x329031e60968c6823056caa8e348bcfc55195a74",
      "function": "enterRaffle(uint256,uint256)",
      "arguments": [
        "3",
        "2"
      ],
      "transaction": {
        "from": "0x506888a16695c670579d06a0314cafdd549329fa",
        "to": "0x329031e60968c6823056caa8e348bcfc55195a74",
        "gas": "0x28dcb",
        "value": "0x0",
        "input": "0xec55612500000000000000000000000000000000000000000000000000000000000000030000000000000000000000000000000000000000000000000000000000000002",
        "nonce": "0x5",
        "chainId": "0x14a34"
      },
      "additionalContracts": [],
      "isFixedGasLimit": false
    },
    {
      "hash": "0x8c1bd3c1fbc6e49053b2e223e09e07c904e8dfbdd08605316827c2d3169fa026",
      "transactionType": "CALL",
      "contractName": null,
      "contractAddress": "0x49f49cfe89050a8f8e48d3a31e33a8e26bc80d1d",
      "function": "approve(address,uint256)",
      "arguments": [
        "0x329031e60968C6823056cAa8e348BCFc55195A74",
        "1000000"
      ],
      "transaction": {
        "from": "0x280ed4fbbbe9ccb25b9de910638efd7920023998",
        "to": "0x49f49cfe89050a8f8e48d3a31e33a8e26bc80d1d",
        "gas": "0xeddf",
        "value": "0x0",
        "input": "0x095ea7b3000000000000000000000000329031e60968c6823056caa8e348bcfc55195a7400000000000000000000000000000000000000000000000000000000000f4240",
        "nonce": "0x4",
        "chainId": "0x14a34"
      },
      "additionalContracts": [],
      "isFixedGasLimit": false
    },
    {
      "hash": "0xa3acf05186c2c0d521ec919f452b0bedcba81b164c22fe2557331ddedf2a28d1",
      "transactionType": "CALL",
      "contractName": null,
      "contractAddress": "0x329031e60968c6823056caa8e348bcfc55195a74",
      "function": "enterRaffle(uint256,uint256)",
      "arguments": [
        "3",
        "1"
      ],
      "transaction": {
        "from": "0x280ed4fbbbe9ccb25b9de910638efd7920023998",
        "to": "0x329031e60968c6823056caa8e348bcfc55195a74",
        "gas": "0x1b7fd",
        "value": "0x0",
        "input": "0xec55612500000000000000000000000000000000000000000000000000000000000000030000000000000000000000000000000000000000000000000000000000000001",
        "nonce": "0x5",
        "chainId": "0x14a34"
      },
      "additionalContracts": [],
      "isFixedGasLimit": false
    },
    {
      "hash": "0x0abd648ec7018aacf0c62cba63c53373f76e47644691e716e0847e05641b059c",
      "transactionType": "CALL",
      "contractName": null,
      "contractAddress": "0x49f49cfe89050a8f8e48d3a31e33a8e26bc80d1d",
      "function": "approve(address,uint256)",
      "arguments": [
        "0x329031e60968C6823056cAa8e348BCFc55195A74",
        "10000000"
      ],
      "transaction": {
        "from": "0x753dfc03b4d37b3a316d0fe5ab9f677c0d3c20f8",
        "to": "0x49f49cfe89050a8f8e48d3a31e33a8e26bc80d1d",
        "gas": "0xeddf",
        "value": "0x0",
        "input": "0x095ea7b3000000000000000000000000329031e60968c6823056caa8e348bcfc55195a740000000000000000000000000000000000000000000000000000000000989680",
        "nonce": "0x4a",
        "chainId": "0x14a34"
      },
      "additionalContracts": [],
      "isFixedGasLimit": false
    },
    {
      "hash": "0xee326f01b8f2a3b9eb41a102a05aca22cb11463e3d7c11fd1d8cab1d607ee60a",
      "transactionType": "CALL",
      "contractName": null,
      "contractAddress": "0x329031e60968c6823056caa8e348bcfc55195a74",
      "function": "createRaffleERC20(address,uint256,uint256,uint256,uint256)",
      "arguments": [
        "0x49f49CfE89050a8F8E48d3A31E33a8e26Bc80D1d",
        "10000000",
        "1000000",
        "5",
        "180"
      ],
      "transaction": {
        "from": "0x753dfc03b4d37b3a316d0fe5ab9f677c0d3c20f8",
        "to": "0x329031e60968c6823056caa8e348bcfc55195a74",
        "gas": "0x38936",
        "value": "0x0",
        "input": "0xdb2b8c0900000000000000000000000049f49cfe89050a8f8e48d3a31e33a8e26bc80d1d000000000000000000000000000000000000000000000000000000000098968000000000000000000000000000000000000000000000000000000000000f4240000000000000000000000000000000000000000000000000000000000000000500000000000000000000000000000000000000000000000000000000000000b4",
        "nonce": "0x4b",
        "chainId": "0x14a34"
      },
      "additionalContracts": [],
      "isFixedGasLimit": false
    },
    {
      "hash": "0xb903df02dd40e9d931c0a0a4ab3b57646e89478d8d1861b797725a4a520cbb82",
      "transactionType": "CALL",
      "contractName": null,
      "contractAddress": "0x49f49cfe89050a8f8e48d3a31e33a8e26bc80d1d",
      "function": "approve(address,uint256)",
      "arguments": [
        "0x329031e60968C6823056cAa8e348BCFc55195A74",
        "10000000"
      ],
      "transaction": {
        "from": "0x753dfc03b4d37b3a316d0fe5ab9f677c0d3c20f8",
        "to": "0x49f49cfe89050a8f8e48d3a31e33a8e26bc80d1d",
        "gas": "0xeddf",
        "value": "0x0",
        "input": "0x095ea7b3000000000000000000000000329031e60968c6823056caa8e348bcfc55195a740000000000000000000000000000000000000000000000000000000000989680",
        "nonce": "0x4c",
        "chainId": "0x14a34"
      },
      "additionalContracts": [],
      "isFixedGasLimit": false
    },
    {
      "hash": "0x4fe4edb5958315f7422bd15a5af0acd2e0ae988000de4f9ff8b891010e7d3a60",
      "transactionType": "CALL",
      "contractName": null,
      "contractAddress": "0x329031e60968c6823056caa8e348bcfc55195a74",
      "function": "createRaffleERC20(address,uint256,uint256,uint256,uint256)",
      "arguments": [
        "0x49f49CfE89050a8F8E48d3A31E33a8e26Bc80D1d",
        "10000000",
        "1000000",
        "2",
        "180"
      ],
      "transaction": {
        "from": "0x753dfc03b4d37b3a316d0fe5ab9f677c0d3c20f8",
        "to": "0x329031e60968c6823056caa8e348bcfc55195a74",
        "gas": "0x38936",
        "value": "0x0",
        "input": "0xdb2b8c0900000000000000000000000049f49cfe89050a8f8e48d3a31e33a8e26bc80d1d000000000000000000000000000000000000000000000000000000000098968000000000000000000000000000000000000000000000000000000000000f4240000000000000000000000000000000000000000000000000000000000000000200000000000000000000000000000000000000000000000000000000000000b4",
        "nonce": "0x4d",
        "chainId": "0x14a34"
      },
      "additionalContracts": [],
      "isFixedGasLimit": false
    },
    {
      "hash": "0xac23f5f8022f7529f305f721269738fdd46fcf12306866bf1e12411a2919cd92",
      "transactionType": "CALL",
      "contractName": null,
      "contractAddress": "0x49f49cfe89050a8f8e48d3a31e33a8e26bc80d1d",
      "function": "approve(address,uint256)",
      "arguments": [
        "0x329031e60968C6823056cAa8e348BCFc55195A74",
        "1000000"
      ],
      "transaction": {
        "from": "0x506888a16695c670579d06a0314cafdd549329fa",
        "to": "0x49f49cfe89050a8f8e48d3a31e33a8e26bc80d1d",
        "gas": "0xeddf",
        "value": "0x0",
        "input": "0x095ea7b3000000000000000000000000329031e60968c6823056caa8e348bcfc55195a7400000000000000000000000000000000000000000000000000000000000f4240",
        "nonce": "0x6",
        "chainId": "0x14a34"
      },
      "additionalContracts": [],
      "isFixedGasLimit": false
    },
    {
      "hash": "0xde3051a51f4a199d6f4d44a5db8c513ccea4e79c87450e659ac863f4022e8b70",
      "transactionType": "CALL",
      "contractName": null,
      "contractAddress": "0x329031e60968c6823056caa8e348bcfc55195a74",
      "function": "enterRaffle(uint256,uint256)",
      "arguments": [
        "5",
        "1"
      ],
      "transaction": {
        "from": "0x506888a16695c670579d06a0314cafdd549329fa",
        "to": "0x329031e60968c6823056caa8e348bcfc55195a74",
        "gas": "0x21440",
        "value": "0x0",
        "input": "0xec55612500000000000000000000000000000000000000000000000000000000000000050000000000000000000000000000000000000000000000000000000000000001",
        "nonce": "0x7",
        "chainId": "0x14a34"
      },
      "additionalContracts": [],
      "isFixedGasLimit": false
    },
    {
      "hash": "0x46162c47e9996e20d459e1612c5608c84e3147419f9fcd22aea3d5af00d1d31a",
      "transactionType": "CALL",
      "contractName": null,
      "contractAddress": "0x49f49cfe89050a8f8e48d3a31e33a8e26bc80d1d",
      "function": "approve(address,uint256)",
      "arguments": [
        "0x329031e60968C6823056cAa8e348BCFc55195A74",
        "1000000"
      ],
      "transaction": {
        "from": "0x280ed4fbbbe9ccb25b9de910638efd7920023998",
        "to": "0x49f49cfe89050a8f8e48d3a31e33a8e26bc80d1d",
        "gas": "0xeddf",
        "value": "0x0",
        "input": "0x095ea7b3000000000000000000000000329031e60968c6823056caa8e348bcfc55195a7400000000000000000000000000000000000000000000000000000000000f4240",
        "nonce": "0x6",
        "chainId": "0x14a34"
      },
      "additionalContracts": [],
      "isFixedGasLimit": false
    },
    {
      "hash": "0xa45600b60b0050ca56708dde11de21e6c1bc717f6442497e3857bf735d6414b6",
      "transactionType": "CALL",
      "contractName": null,
      "contractAddress": "0x329031e60968c6823056caa8e348bcfc55195a74",
      "function": "enterRaffle(uint256,uint256)",
      "arguments": [
        "5",
        "1"
      ],
      "transaction": {
        "from": "0x280ed4fbbbe9ccb25b9de910638efd7920023998",
        "to": "0x329031e60968c6823056caa8e348bcfc55195a74",
        "gas": "0x1b7fd",
        "value": "0x0",
        "input": "0xec55612500000000000000000000000000000000000000000000000000000000000000050000000000000000000000000000000000000000000000000000000000000001",
        "nonce": "0x7",
        "chainId": "0x14a34"
      },
      "additionalContracts": [],
      "isFixedGasLimit": false
    },
    {
      "hash": "0x37a6945ae02da0e735d2af2a00282284fb3fa13026eac7df6d18aaa2198f7830",
      "transactionType": "CALL",
      "contractName": null,
      "contractAddress": "0x49f49cfe89050a8f8e48d3a31e33a8e26bc80d1d",
      "function": "approve(address,uint256)",
      "arguments": [
        "0x329031e60968C6823056cAa8e348BCFc55195A74",
        "10000000"
      ],
      "transaction": {
        "from": "0x753dfc03b4d37b3a316d0fe5ab9f677c0d3c20f8",
        "to": "0x49f49cfe89050a8f8e48d3a31e33a8e26bc80d1d",
        "gas": "0xeddf",
        "value": "0x0",
        "input": "0x095ea7b3000000000000000000000000329031e60968c6823056caa8e348bcfc55195a740000000000000000000000000000000000000000000000000000000000989680",
        "nonce": "0x4e",
        "chainId": "0x14a34"
      },
      "additionalContracts": [],
      "isFixedGasLimit": false
    },
    {
      "hash": "0x508f6d98c6d04ccf4ef0e1e565b707d3f6c14c05086bd409889c916d1039df91",
      "transactionType": "CALL",
      "contractName": null,
      "contractAddress": "0x329031e60968c6823056caa8e348bcfc55195a74",
      "function": "createRaffleERC20(address,uint256,uint256,uint256,uint256)",
      "arguments": [
        "0x49f49CfE89050a8F8E48d3A31E33a8e26Bc80D1d",
        "10000000",
        "1000000",
        "10",
        "180"
      ],
      "transaction": {
        "from": "0x753dfc03b4d37b3a316d0fe5ab9f677c0d3c20f8",
        "to": "0x329031e60968c6823056caa8e348bcfc55195a74",
        "gas": "0x38936",
        "value": "0x0",
        "input": "0xdb2b8c0900000000000000000000000049f49cfe89050a8f8e48d3a31e33a8e26bc80d1d000000000000000000000000000000000000000000000000000000000098968000000000000000000000000000000000000000000000000000000000000f4240000000000000000000000000000000000000000000000000000000000000000a00000000000000000000000000000000000000000000000000000000000000b4",
        "nonce": "0x4f",
        "chainId": "0x14a34"
      },
      "additionalContracts": [],
      "isFixedGasLimit": false
    },
    {
      "hash": "0xfcc916b7eefd694238a032f58e3e37ea03836b46b429280a3d2f3c5e48d803d9",
      "transactionType": "CALL",
      "contractName": null,
      "contractAddress": "0x49f49cfe89050a8f8e48d3a31e33a8e26bc80d1d",
      "function": "approve(address,uint256)",
      "arguments": [
        "0x329031e60968C6823056cAa8e348BCFc55195A74",
        "5000000"
      ],
      "transaction": {
        "from": "0x506888a16695c670579d06a0314cafdd549329fa",
        "to": "0x49f49cfe89050a8f8e48d3a31e33a8e26bc80d1d",
        "gas": "0xeddf",
        "value": "0x0",
        "input": "0x095ea7b3000000000000000000000000329031e60968c6823056caa8e348bcfc55195a7400000000000000000000000000000000000000000000000000000000004c4b40",
        "nonce": "0x8",
        "chainId": "0x14a34"
      },
      "additionalContracts": [],
      "isFixedGasLimit": false
    },
    {
      "hash": "0xd6d4de2253c5bbd928c6ca7f32ff81d549481f3653477504cf2228877d8c601b",
      "transactionType": "CALL",
      "contractName": null,
      "contractAddress": "0x329031e60968c6823056caa8e348bcfc55195a74",
      "function": "enterRaffle(uint256,uint256)",
      "arguments": [
        "6",
        "5"
      ],
      "transaction": {
        "from": "0x506888a16695c670579d06a0314cafdd549329fa",
        "to": "0x329031e60968c6823056caa8e348bcfc55195a74",
        "gas": "0x3fa69",
        "value": "0x0",
        "input": "0xec55612500000000000000000000000000000000000000000000000000000000000000060000000000000000000000000000000000000000000000000000000000000005",
        "nonce": "0x9",
        "chainId": "0x14a34"
      },
      "additionalContracts": [],
      "isFixedGasLimit": false
    },
    {
      "hash": "0xf7f36d7b38422ecfce483d57128c19df6949abefc511e0c29f7a63f00a68c6ed",
      "transactionType": "CALL",
      "contractName": null,
      "contractAddress": "0x49f49cfe89050a8f8e48d3a31e33a8e26bc80d1d",
      "function": "approve(address,uint256)",
      "arguments": [
        "0x329031e60968C6823056cAa8e348BCFc55195A74",
        "1000000"
      ],
      "transaction": {
        "from": "0x280ed4fbbbe9ccb25b9de910638efd7920023998",
        "to": "0x49f49cfe89050a8f8e48d3a31e33a8e26bc80d1d",
        "gas": "0xeddf",
        "value": "0x0",
        "input": "0x095ea7b3000000000000000000000000329031e60968c6823056caa8e348bcfc55195a7400000000000000000000000000000000000000000000000000000000000f4240",
        "nonce": "0x8",
        "chainId": "0x14a34"
      },
      "additionalContracts": [],
      "isFixedGasLimit": false
    },
    {
      "hash": "0xeecd163b0bcb5b0550ca5846ae68fed0b7a1d2ed696d53cc358301aa7303c28b",
      "transactionType": "CALL",
      "contractName": null,
      "contractAddress": "0x329031e60968c6823056caa8e348bcfc55195a74",
      "function": "enterRaffle(uint256,uint256)",
      "arguments": [
        "6",
        "1"
      ],
      "transaction": {
        "from": "0x280ed4fbbbe9ccb25b9de910638efd7920023998",
        "to": "0x329031e60968c6823056caa8e348bcfc55195a74",
        "gas": "0x1b7fd",
        "value": "0x0",
        "input": "0xec55612500000000000000000000000000000000000000000000000000000000000000060000000000000000000000000000000000000000000000000000000000000001",
        "nonce": "0x9",
        "chainId": "0x14a34"
      },
      "additionalContracts": [],
      "isFixedGasLimit": false
    },
    {
      "hash": "0x3fa040e38228eea4badbc6565fcb9386cee3373b53a259ec3457a2c9d6065d3b",
      "transactionType": "CALL",
      "contractName": null,
      "contractAddress": "0x19d59e6940fe3b7ad1c12975f0c0dff3c13a063e",
      "function": "mint(address)",
      "arguments": [
        "0x753dFC03b4d37B3a316D0Fe5aB9F677C0D3C20f8"
      ],
      "transaction": {
        "from": "0x753dfc03b4d37b3a316d0fe5ab9f677c0d3c20f8",
        "to": "0x19d59e6940fe3b7ad1c12975f0c0dff3c13a063e",
        "gas": "0x1155f",
        "value": "0x0",
        "input": "0x6a627842000000000000000000000000753dfc03b4d37b3a316d0fe5ab9f677c0d3c20f8",
        "nonce": "0x50",
        "chainId": "0x14a34"
      },
      "additionalContracts": [],
      "isFixedGasLimit": false
    },
    {
      "hash": "0xab97e8b65352f7e3dde52998c94809bc63a5c944f3c04426b0ecd0427028e1b5",
      "transactionType": "CALL",
      "contractName": null,
      "contractAddress": "0x19d59e6940fe3b7ad1c12975f0c0dff3c13a063e",
      "function": "approve(address,uint256)",
      "arguments": [
        "0x329031e60968C6823056cAa8e348BCFc55195A74",
        "1"
      ],
      "transaction": {
        "from": "0x753dfc03b4d37b3a316d0fe5ab9f677c0d3c20f8",
        "to": "0x19d59e6940fe3b7ad1c12975f0c0dff3c13a063e",
        "gas": "0x115d6",
        "value": "0x0",
        "input": "0x095ea7b3000000000000000000000000329031e60968c6823056caa8e348bcfc55195a740000000000000000000000000000000000000000000000000000000000000001",
        "nonce": "0x51",
        "chainId": "0x14a34"
      },
      "additionalContracts": [],
      "isFixedGasLimit": false
    },
    {
      "hash": "0x41486ee39ac7228108bde8d1e9d8ade01f204868d27382d22d3d4000c3ee28f3",
      "transactionType": "CALL",
      "contractName": null,
      "contractAddress": "0x329031e60968c6823056caa8e348bcfc55195a74",
      "function": "createRaffleERC721(address,uint256,uint256,uint256,uint256)",
      "arguments": [
        "0x19D59e6940Fe3B7aD1c12975f0c0dFF3C13a063E",
        "1",
        "1000000",
        "2",
        "180"
      ],
      "transaction": {
        "from": "0x753dfc03b4d37b3a316d0fe5ab9f677c0d3c20f8",
        "to": "0x329031e60968c6823056caa8e348bcfc55195a74",
        "gas": "0x37138",
        "value": "0x0",
        "input": "0x0013a78f00000000000000000000000019d59e6940fe3b7ad1c12975f0c0dff3c13a063e000000000000000000000000000000000000000000000000000000000000000100000000000000000000000000000000000000000000000000000000000f4240000000000000000000000000000000000000000000000000000000000000000200000000000000000000000000000000000000000000000000000000000000b4",
        "nonce": "0x52",
        "chainId": "0x14a34"
      },
      "additionalContracts": [],
      "isFixedGasLimit": false
    },
    {
      "hash": "0x3e32d3d4f26db5aae3d3fe6202bb4a71f1da15589583e4a0e721c3ac809b9232",
      "transactionType": "CALL",
      "contractName": null,
      "contractAddress": "0x49f49cfe89050a8f8e48d3a31e33a8e26bc80d1d",
      "function": "approve(address,uint256)",
      "arguments": [
        "0x329031e60968C6823056cAa8e348BCFc55195A74",
        "1000000"
      ],
      "transaction": {
        "from": "0x506888a16695c670579d06a0314cafdd549329fa",
        "to": "0x49f49cfe89050a8f8e48d3a31e33a8e26bc80d1d",
        "gas": "0xeddf",
        "value": "0x0",
        "input": "0x095ea7b3000000000000000000000000329031e60968c6823056caa8e348bcfc55195a7400000000000000000000000000000000000000000000000000000000000f4240",
        "nonce": "0xa",
        "chainId": "0x14a34"
      },
      "additionalContracts": [],
      "isFixedGasLimit": false
    },
    {
      "hash": "0x56b09da434c4c05995898a1819fd501348524489821f04362d876e04315bd401",
      "transactionType": "CALL",
      "contractName": null,
      "contractAddress": "0x329031e60968c6823056caa8e348bcfc55195a74",
      "function": "enterRaffle(uint256,uint256)",
      "arguments": [
        "7",
        "1"
      ],
      "transaction": {
        "from": "0x506888a16695c670579d06a0314cafdd549329fa",
        "to": "0x329031e60968c6823056caa8e348bcfc55195a74",
        "gas": "0x21440",
        "value": "0x0",
        "input": "0xec55612500000000000000000000000000000000000000000000000000000000000000070000000000000000000000000000000000000000000000000000000000000001",
        "nonce": "0xb",
        "chainId": "0x14a34"
      },
      "additionalContracts": [],
      "isFixedGasLimit": false
    },
    {
      "hash": "0x800f52746b0775f25d75d1c784b643eab25793c611acb33aa238661853a0ec9a",
      "transactionType": "CALL",
      "contractName": null,
      "contractAddress": "0x49f49cfe89050a8f8e48d3a31e33a8e26bc80d1d",
      "function": "approve(address,uint256)",
      "arguments": [
        "0x329031e60968C6823056cAa8e348BCFc55195A74",
        "1000000"
      ],
      "transaction": {
        "from": "0x280ed4fbbbe9ccb25b9de910638efd7920023998",
        "to": "0x49f49cfe89050a8f8e48d3a31e33a8e26bc80d1d",
        "gas": "0xeddf",
        "value": "0x0",
        "input": "0x095ea7b3000000000000000000000000329031e60968c6823056caa8e348bcfc55195a7400000000000000000000000000000000000000000000000000000000000f4240",
        "nonce": "0xa",
        "chainId": "0x14a34"
      },
      "additionalContracts": [],
      "isFixedGasLimit": false
    },
    {
      "hash": "0x7b19c45143d732d487d8aae2ffe4b264797c7a1358ab215a98a92d5dd12446f9",
      "transactionType": "CALL",
      "contractName": null,
      "contractAddress": "0x329031e60968c6823056caa8e348bcfc55195a74",
      "function": "enterRaffle(uint256,uint256)",
      "arguments": [
        "7",
        "1"
      ],
      "transaction": {
        "from": "0x280ed4fbbbe9ccb25b9de910638efd7920023998",
        "to": "0x329031e60968c6823056caa8e348bcfc55195a74",
        "gas": "0x1b7fd",
        "value": "0x0",
        "input": "0xec55612500000000000000000000000000000000000000000000000000000000000000070000000000000000000000000000000000000000000000000000000000000001",
        "nonce": "0xb",
        "chainId": "0x14a34"
      },
      "additionalContracts": [],
      "isFixedGasLimit": false
    },
    {
      "hash": "0xd09681de6f493c4e977848b985926040c9a89383b235a7c7e9e35efe6df65379",
      "transactionType": "CALL",
      "contractName": null,
      "contractAddress": "0x19d59e6940fe3b7ad1c12975f0c0dff3c13a063e",
      "function": "mint(address)",
      "arguments": [
        "0x753dFC03b4d37B3a316D0Fe5aB9F677C0D3C20f8"
      ],
      "transaction": {
        "from": "0x753dfc03b4d37b3a316d0fe5ab9f677c0d3c20f8",
        "to": "0x19d59e6940fe3b7ad1c12975f0c0dff3c13a063e",
        "gas": "0x1155f",
        "value": "0x0",
        "input": "0x6a627842000000000000000000000000753dfc03b4d37b3a316d0fe5ab9f677c0d3c20f8",
        "nonce": "0x53",
        "chainId": "0x14a34"
      },
      "additionalContracts": [],
      "isFixedGasLimit": false
    },
    {
      "hash": "0x9fa574e92aea9ef74bb592d946715ab29f02542f8f905aa1df9190e913604449",
      "transactionType": "CALL",
      "contractName": null,
      "contractAddress": "0x19d59e6940fe3b7ad1c12975f0c0dff3c13a063e",
      "function": "approve(address,uint256)",
      "arguments": [
        "0x329031e60968C6823056cAa8e348BCFc55195A74",
        "2"
      ],
      "transaction": {
        "from": "0x753dfc03b4d37b3a316d0fe5ab9f677c0d3c20f8",
        "to": "0x19d59e6940fe3b7ad1c12975f0c0dff3c13a063e",
        "gas": "0x115d6",
        "value": "0x0",
        "input": "0x095ea7b3000000000000000000000000329031e60968c6823056caa8e348bcfc55195a740000000000000000000000000000000000000000000000000000000000000002",
        "nonce": "0x54",
        "chainId": "0x14a34"
      },
      "additionalContracts": [],
      "isFixedGasLimit": false
    },
    {
      "hash": "0x51ff4cc1e38f9e37125214ebd7a141ecd57a798eecf2eecbfcb5639a3fa2b102",
      "transactionType": "CALL",
      "contractName": null,
      "contractAddress": "0x329031e60968c6823056caa8e348bcfc55195a74",
      "function": "createRaffleERC721(address,uint256,uint256,uint256,uint256)",
      "arguments": [
        "0x19D59e6940Fe3B7aD1c12975f0c0dFF3C13a063E",
        "2",
        "1000000",
        "5",
        "180"
      ],
      "transaction": {
        "from": "0x753dfc03b4d37b3a316d0fe5ab9f677c0d3c20f8",
        "to": "0x329031e60968c6823056caa8e348bcfc55195a74",
        "gas": "0x37138",
        "value": "0x0",
        "input": "0x0013a78f00000000000000000000000019d59e6940fe3b7ad1c12975f0c0dff3c13a063e000000000000000000000000000000000000000000000000000000000000000200000000000000000000000000000000000000000000000000000000000f4240000000000000000000000000000000000000000000000000000000000000000500000000000000000000000000000000000000000000000000000000000000b4",
        "nonce": "0x55",
        "chainId": "0x14a34"
      },
      "additionalContracts": [],
      "isFixedGasLimit": false
    },
    {
      "hash": "0x8369913a8e4fc63d55af61ba2d30818a1aee3cfc0035d217e942cbbf968d480b",
      "transactionType": "CALL",
      "contractName": null,
      "contractAddress": "0x49f49cfe89050a8f8e48d3a31e33a8e26bc80d1d",
      "function": "approve(address,uint256)",
      "arguments": [
        "0x329031e60968C6823056cAa8e348BCFc55195A74",
        "1000000"
      ],
      "transaction": {
        "from": "0x506888a16695c670579d06a0314cafdd549329fa",
        "to": "0x49f49cfe89050a8f8e48d3a31e33a8e26bc80d1d",
        "gas": "0xeddf",
        "value": "0x0",
        "input": "0x095ea7b3000000000000000000000000329031e60968c6823056caa8e348bcfc55195a7400000000000000000000000000000000000000000000000000000000000f4240",
        "nonce": "0xc",
        "chainId": "0x14a34"
      },
      "additionalContracts": [],
      "isFixedGasLimit": false
    },
    {
      "hash": "0x0ceeedf843f7ebb789130c716dbf11b9bed6507833a90b23f93f4563bf2c1407",
      "transactionType": "CALL",
      "contractName": null,
      "contractAddress": "0x329031e60968c6823056caa8e348bcfc55195a74",
      "function": "enterRaffle(uint256,uint256)",
      "arguments": [
        "8",
        "1"
      ],
      "transaction": {
        "from": "0x506888a16695c670579d06a0314cafdd549329fa",
        "to": "0x329031e60968c6823056caa8e348bcfc55195a74",
        "gas": "0x21440",
        "value": "0x0",
        "input": "0xec55612500000000000000000000000000000000000000000000000000000000000000080000000000000000000000000000000000000000000000000000000000000001",
        "nonce": "0xd",
        "chainId": "0x14a34"
      },
      "additionalContracts": [],
      "isFixedGasLimit": false
    }
  ],
  "receipts": [
    {
      "status": "0x1",
      "cumulativeGasUsed": "0x4f7282",
      "logs": [],
      "logsBloom": "0x00000000000000000000000000000000000000000000000000000000000000000000000000000000000000000000000000000000000000000000000000000000000000000000000000000000000000000000000000000000000000000000000000000000000000000000000000000000000000000000000000000000000000000000000000000000000000000000000000000000000000000000000000000000000000000000000000000000000000000000000000000000000000000000000000000000000000000000000000000000000000000000000000000000000000000000000000000000000000000000000000000000000000000000000000000000",
      "type": "0x2",
      "transactionHash": "0x03879a2503538e05fca4324c6b5704b6857a767fbb645c361fe04a78825fa24c",
      "transactionIndex": "0x25",
      "blockHash": "0x55913be2ef948ed0c46e21b3fd471af992475121a26dcabaab377a3efc52b2b0",
      "blockNumber": "0x24f74f8",
      "gasUsed": "0xc044",
      "effectiveGasPrice": "0x5b8d80",
      "blobGasUsed": "0x364c",
      "from": "0x753dfc03b4d37b3a316d0fe5ab9f677c0d3c20f8",
      "to": "0x49f49cfe89050a8f8e48d3a31e33a8e26bc80d1d",
      "contractAddress": null,
      "daFootprintGasScalar": "0x8b",
      "l1BaseFeeScalar": "0x44d",
      "l1BlobBaseFee": "0x1",
      "l1BlobBaseFeeScalar": "0xa118b",
      "l1Fee": "0x53",
      "l1GasPrice": "0xa",
      "l1GasUsed": "0x640"
    },
    {
      "status": "0x1",
      "cumulativeGasUsed": "0x52f45",
      "logs": [],
      "logsBloom": "0x00000000000000000000000000000000000000000000000000000000000000000000000000000000000000000000000000000000000000000000000000000000000000000000000000000000000000000000000000000000000000000000000000000000000000000000000000000000000000000000000000000000000000000000000000000000000000000000000000000000000000000000000000000000000000000000000000000000000000000000000000000000000000000000000000000000000000000000000000000000000000000000000000000000000000000000000000000000000000000000000000000000000000000000000000000000",
      "type": "0x2",
      "transactionHash": "0xc1f31352bbce1d2847818d9fa71eb087f3addb4537037a52629ed341f2737470",
      "transactionIndex": "0x4",
      "blockHash": "0x0000000000000000000000000000000000000000000000000000000000000000",
      "blockNumber": "0x24f74fa",
      "gasUsed": "0xc044",
      "effectiveGasPrice": "0x5b8d80",
      "blobGasUsed": "0x364c",
      "from": "0x753dfc03b4d37b3a316d0fe5ab9f677c0d3c20f8",
      "to": "0x49f49cfe89050a8f8e48d3a31e33a8e26bc80d1d",
      "contractAddress": null,
      "daFootprintGasScalar": "0x8b",
      "l1BaseFeeScalar": "0x44d",
      "l1BlobBaseFee": "0x1",
      "l1BlobBaseFeeScalar": "0xa118b",
      "l1Fee": "0x53",
      "l1GasPrice": "0xa",
      "l1GasUsed": "0x640"
    },
    {
      "status": "0x1",
      "cumulativeGasUsed": "0x326713",
      "logs": [
        {
          "address": "0x329031e60968c6823056caa8e348bcfc55195a74",
          "topics": [
            "0xa7f5d2ab44bf05730cdc4bbcac853dcb248b08dde217076250444c1b67060061"
          ],
          "data": "0x00000000000000000000000000000000000000000000000000000000000000fa0000000000000000000000000000000000000000000000000000000069b4ebd6",
          "blockHash": "0x0000000000000000000000000000000000000000000000000000000000000000",
          "blockNumber": "0x24f74fb",
          "blockTimestamp": "0x69b248d6",
          "transactionHash": "0x2bfd0052a2acfa8fe3eb4d8d8838281fd10605e2946d5ddeda088f7b66c493a9",
          "transactionIndex": "0x1e",
          "logIndex": "0x45",
          "removed": false
        }
      ],
      "logsBloom": "0x00004008000000000000000000000000000000000000000000000000000000000000000004000000000000000000000000000000000000000000000000000000000000000000000000000000000000000200000000000000000000000000000000000000000000000000000000000000000000000000000000000000000000000000000000000000000000000000000000000000000000000000000000000000000000000000000000000000000000000000000000000000000000000000000000000000000000000000000000000000000000000000000080000000000000000000000000000000000000000000000000000000000000000000000000400000",
      "type": "0x2",
      "transactionHash": "0x2bfd0052a2acfa8fe3eb4d8d8838281fd10605e2946d5ddeda088f7b66c493a9",
      "transactionIndex": "0x1e",
      "blockHash": "0x0000000000000000000000000000000000000000000000000000000000000000",
      "blockNumber": "0x24f74fb",
      "gasUsed": "0x1116b",
      "effectiveGasPrice": "0x5b8d80",
      "blobGasUsed": "0x364c",
      "from": "0x753dfc03b4d37b3a316d0fe5ab9f677c0d3c20f8",
      "to": "0x329031e60968c6823056caa8e348bcfc55195a74",
      "contractAddress": null,
      "daFootprintGasScalar": "0x8b",
      "l1BaseFeeScalar": "0x44d",
      "l1BlobBaseFee": "0x1",
      "l1BlobBaseFeeScalar": "0xa118b",
      "l1Fee": "0x53",
      "l1GasPrice": "0xa",
      "l1GasUsed": "0x640"
    },
    {
      "status": "0x1",
      "cumulativeGasUsed": "0x88637a",
      "logs": [],
      "logsBloom": "0x00000000000000000000000000000000000000000000000000000000000000000000000000000000000000000000000000000000000000000000000000000000000000000000000000000000000000000000000000000000000000000000000000000000000000000000000000000000000000000000000000000000000000000000000000000000000000000000000000000000000000000000000000000000000000000000000000000000000000000000000000000000000000000000000000000000000000000000000000000000000000000000000000000000000000000000000000000000000000000000000000000000000000000000000000000000",
      "type": "0x2",
      "transactionHash": "0xb10a371173fc435d92d8112ccdd20452f1c22db71866864f5e5965977f5faee9",
      "transactionIndex": "0x20",
      "blockHash": "0x0000000000000000000000000000000000000000000000000000000000000000",
      "blockNumber": "0x24f74fc",
      "gasUsed": "0xac38",
      "effectiveGasPrice": "0x5b8d80",
      "blobGasUsed": "0x364c",
      "from": "0x753dfc03b4d37b3a316d0fe5ab9f677c0d3c20f8",
      "to": "0x49f49cfe89050a8f8e48d3a31e33a8e26bc80d1d",
      "contractAddress": null,
      "daFootprintGasScalar": "0x8b",
      "l1BaseFeeScalar": "0x44d",
      "l1BlobBaseFee": "0x1",
      "l1BlobBaseFeeScalar": "0xa118b",
      "l1Fee": "0x53",
      "l1GasPrice": "0xa",
      "l1GasUsed": "0x640"
    },
    {
      "status": "0x1",
      "cumulativeGasUsed": "0x3b1901",
      "logs": [
        {
          "address": "0x329031e60968c6823056caa8e348bcfc55195a74",
          "topics": [
            "0xc8c0997fd67965d4307a1f999729fd9602e5ed4aeda0653de98b8b0d3dc34d9c",
            "0x0000000000000000000000000000000000000000000000000000000000000001",
            "0x000000000000000000000000753dfc03b4d37b3a316d0fe5ab9f677c0d3c20f8"
          ],
          "data": "0x00000000000000000000000049f49cfe89050a8f8e48d3a31e33a8e26bc80d1d000000000000000000000000000000000000000000000000000000000000000000000000000000000000000000000000000000000000000000000000009896800000000000000000000000000000000000000000000000000000000069b2498e00000000000000000000000000000000000000000000000000000000000000c0000000000000000000000000000000000000000000000000000000000000000600000000000000000000000000000000000000000000000000000000000000045553444300000000000000000000000000000000000000000000000000000000",
          "blockHash": "0x0000000000000000000000000000000000000000000000000000000000000000",
          "blockNumber": "0x24f74fd",
          "blockTimestamp": "0x69b248da",
          "transactionHash": "0x4efd76448962ec26f62cd73a9583b5f30c1fee6a2baa8ea734544f02cb637be4",
          "transactionIndex": "0x10",
          "logIndex": "0xb0",
          "removed": false
        }
      ],
      "logsBloom": "0x00100008000000000000000000000000000000000000000000000000000000004000000004000000000000000000000040000000000000004000000000040000000000000000000000000000000000000000000000040000000000000000000000000000000000000000000000000000000000000000000000000000000000000000000000000000000000000000000000000000000000000000000000000000000000000000000000000000000000000000000000000000000000000000000000000000000000000000000800000000000000000000000080000000000040000000000000000000000000000000000000000000040000000000000000000000",
      "type": "0x2",
      "transactionHash": "0x4efd76448962ec26f62cd73a9583b5f30c1fee6a2baa8ea734544f02cb637be4",
      "transactionIndex": "0x10",
      "blockHash": "0x0000000000000000000000000000000000000000000000000000000000000000",
      "blockNumber": "0x24f74fd",
      "gasUsed": "0x314f4",
      "effectiveGasPrice": "0x5b8d80",
      "blobGasUsed": "0x3a19",
      "from": "0x753dfc03b4d37b3a316d0fe5ab9f677c0d3c20f8",
      "to": "0x329031e60968c6823056caa8e348bcfc55195a74",
      "contractAddress": null,
      "daFootprintGasScalar": "0x8b",
      "l1BaseFeeScalar": "0x44d",
      "l1BlobBaseFee": "0x1",
      "l1BlobBaseFeeScalar": "0xa118b",
      "l1Fee": "0x1b8",
      "l1GasPrice": "0xa",
      "l1GasUsed": "0x6bf"
    },
    {
      "status": "0x1",
      "cumulativeGasUsed": "0x4fb9a2",
      "logs": [],
      "logsBloom": "0x00000000000000000000000000000000000000000000000000000000000000000000000000000000000000000000000000000000000000000000000000000000000000000000000000000000000000000000000000000000000000000000000000000000000000000000000000000000000000000000000000000000000000000000000000000000000000000000000000000000000000000000000000000000000000000000000000000000000000000000000000000000000000000000000000000000000000000000000000000000000000000000000000000000000000000000000000000000000000000000000000000000000000000000000000000000",
      "type": "0x2",
      "transactionHash": "0xcec2cbfb6968481060f02d78f3f825f34947e01010b5ae7a43760ca3adbcabab",
      "transactionIndex": "0x1b",
      "blockHash": "0x0000000000000000000000000000000000000000000000000000000000000000",
      "blockNumber": "0x24f74fd",
      "gasUsed": "0xac38",
      "effectiveGasPrice": "0x5b8d80",
      "blobGasUsed": "0x364c",
      "from": "0x506888a16695c670579d06a0314cafdd549329fa",
      "to": "0x49f49cfe89050a8f8e48d3a31e33a8e26bc80d1d",
      "contractAddress": null,
      "daFootprintGasScalar": "0x8b",
      "l1BaseFeeScalar": "0x44d",
      "l1BlobBaseFee": "0x1",
      "l1BlobBaseFeeScalar": "0xa118b",
      "l1Fee": "0x53",
      "l1GasPrice": "0xa",
      "l1GasUsed": "0x640"
    },
    {
      "status": "0x1",
      "cumulativeGasUsed": "0x3aa3e4",
      "logs": [
        {
          "address": "0x329031e60968c6823056caa8e348bcfc55195a74",
          "topics": [
            "0xdbaaf4c87ce30816c961a81d110622a3227ede77953d4383d514ff88ab2e0fd3",
            "0x0000000000000000000000000000000000000000000000000000000000000001",
            "0x000000000000000000000000506888a16695c670579d06a0314cafdd549329fa"
          ],
          "data": "0x0000000000000000000000000000000000000000000000000000000000000001",
          "blockHash": "0x3daa7e50e31aefa1abb3569123525bd518f972fa2fbb3035eb7c66a748c53430",
          "blockNumber": "0x24f74fe",
          "blockTimestamp": "0x69b248dc",
          "transactionHash": "0x282da051ee613cfb704592a304d7b8822d5f70e5cfd62e70ad7f64102e19acf3",
          "transactionIndex": "0x1b",
          "logIndex": "0x73",
          "removed": false
        }
      ],
      "logsBloom": "0x00000008000000000000000000800000000000000000000000000000000000000000000004000000000000000000000000000000000000000000000000040000000000000000000000000000000000000000000000040000000000000000000000000000000000000000000000000000000000008000000000000000000000000000000000000000000000000000000000000000000000000000000000000000000000000000000000000000000020000000000000000000000000000000000000000000000000000000000000000000000000000000000080000000000040000800000000000000000000000000000100000000000000000000000000080000",
      "type": "0x2",
      "transactionHash": "0x282da051ee613cfb704592a304d7b8822d5f70e5cfd62e70ad7f64102e19acf3",
      "transactionIndex": "0x1b",
      "blockHash": "0x3daa7e50e31aefa1abb3569123525bd518f972fa2fbb3035eb7c66a748c53430",
      "blockNumber": "0x24f74fe",
      "gasUsed": "0x18158",
      "effectiveGasPrice": "0x5b8d80",
      "blobGasUsed": "0x364c",
      "from": "0x506888a16695c670579d06a0314cafdd549329fa",
      "to": "0x329031e60968c6823056caa8e348bcfc55195a74",
      "contractAddress": null,
      "daFootprintGasScalar": "0x8b",
      "l1BaseFeeScalar": "0x44d",
      "l1BlobBaseFee": "0x1",
      "l1BlobBaseFeeScalar": "0xa118b",
      "l1Fee": "0x53",
      "l1GasPrice": "0xa",
      "l1GasUsed": "0x640"
    },
    {
      "status": "0x1",
      "cumulativeGasUsed": "0xac0dd",
      "logs": [],
      "logsBloom": "0x00000000000000000000000000000000000000000000000000000000000000000000000000000000000000000000000000000000000000000000000000000000000000000000000000000000000000000000000000000000000000000000000000000000000000000000000000000000000000000000000000000000000000000000000000000000000000000000000000000000000000000000000000000000000000000000000000000000000000000000000000000000000000000000000000000000000000000000000000000000000000000000000000000000000000000000000000000000000000000000000000000000000000000000000000000000",
      "type": "0x2",
      "transactionHash": "0xacfbcacb5adc88fd8adc76c4548f880daf1e9bd58bc2c94b8979336a7f48e0e6",
      "transactionIndex": "0x5",
      "blockHash": "0x0000000000000000000000000000000000000000000000000000000000000000",
      "blockNumber": "0x24f7500",
      "gasUsed": "0xac38",
      "effectiveGasPrice": "0x5b8d80",
      "blobGasUsed": "0x364c",
      "from": "0x280ed4fbbbe9ccb25b9de910638efd7920023998",
      "to": "0x49f49cfe89050a8f8e48d3a31e33a8e26bc80d1d",
      "contractAddress": null,
      "daFootprintGasScalar": "0x8b",
      "l1BaseFeeScalar": "0x44d",
      "l1BlobBaseFee": "0x1",
      "l1BlobBaseFeeScalar": "0xa118b",
      "l1Fee": "0x53",
      "l1GasPrice": "0xa",
      "l1GasUsed": "0x640"
    },
    {
      "status": "0x1",
      "cumulativeGasUsed": "0x61e711",
      "logs": [
        {
          "address": "0x329031e60968c6823056caa8e348bcfc55195a74",
          "topics": [
            "0xdbaaf4c87ce30816c961a81d110622a3227ede77953d4383d514ff88ab2e0fd3",
            "0x0000000000000000000000000000000000000000000000000000000000000001",
            "0x000000000000000000000000280ed4fbbbe9ccb25b9de910638efd7920023998"
          ],
          "data": "0x0000000000000000000000000000000000000000000000000000000000000001",
          "blockHash": "0x0000000000000000000000000000000000000000000000000000000000000000",
          "blockNumber": "0x24f7501",
          "blockTimestamp": "0x69b248e2",
          "transactionHash": "0x4860785034a37e56eb063f1ed46cd4e6c24775b837c489288206fa252070479b",
          "transactionIndex": "0x1d",
          "logIndex": "0x7d",
          "removed": false
        }
      ],
      "logsBloom": "0x00000008000000000000000000800000000000000000000000000000000000000000000004000000000000000000000000000000000000000000000000040000000000000000000000000000000000000000000000040000000000000000000000000000000000001000000000000000000000008000000000000000000000000000000000000000000000000000000000000000000000000000000000000000000000000000000000000020000000000000000000000000000000000000000000000000000000000000000000000000000000000000000080000000000040000000000000000000000000000000000100000000000000000000000000000020",
      "type": "0x2",
      "transactionHash": "0x4860785034a37e56eb063f1ed46cd4e6c24775b837c489288206fa252070479b",
      "transactionIndex": "0x1d",
      "blockHash": "0x0000000000000000000000000000000000000000000000000000000000000000",
      "blockNumber": "0x24f7501",
      "gasUsed": "0x13e8c",
      "effectiveGasPrice": "0x5b8d80",
      "blobGasUsed": "0x364c",
      "from": "0x280ed4fbbbe9ccb25b9de910638efd7920023998",
      "to": "0x329031e60968c6823056caa8e348bcfc55195a74",
      "contractAddress": null,
      "daFootprintGasScalar": "0x8b",
      "l1BaseFeeScalar": "0x44d",
      "l1BlobBaseFee": "0x1",
      "l1BlobBaseFeeScalar": "0xa118b",
      "l1Fee": "0x53",
      "l1GasPrice": "0xa",
      "l1GasUsed": "0x640"
    },
    {
      "status": "0x1",
      "cumulativeGasUsed": "0x8fb0c",
      "logs": [],
      "logsBloom": "0x00000000000000000000000000000000000000000000000000000000000000000000000000000000000000000000000000000000000000000000000000000000000000000000000000000000000000000000000000000000000000000000000000000000000000000000000000000000000000000000000000000000000000000000000000000000000000000000000000000000000000000000000000000000000000000000000000000000000000000000000000000000000000000000000000000000000000000000000000000000000000000000000000000000000000000000000000000000000000000000000000000000000000000000000000000000",
      "type": "0x2",
      "transactionHash": "0xe4293b660f3637471c8cd85eaf80573408607d8ad6b5e27e52ad7200fab7e7c2",
      "transactionIndex": "0x5",
      "blockHash": "0x0000000000000000000000000000000000000000000000000000000000000000",
      "blockNumber": "0x24f7502",
      "gasUsed": "0xac38",
      "effectiveGasPrice": "0x5b8d80",
      "blobGasUsed": "0x364c",
      "from": "0x753dfc03b4d37b3a316d0fe5ab9f677c0d3c20f8",
      "to": "0x49f49cfe89050a8f8e48d3a31e33a8e26bc80d1d",
      "contractAddress": null,
      "daFootprintGasScalar": "0x8b",
      "l1BaseFeeScalar": "0x44d",
      "l1BlobBaseFee": "0x1",
      "l1BlobBaseFeeScalar": "0xa118b",
      "l1Fee": "0x53",
      "l1GasPrice": "0xa",
      "l1GasUsed": "0x640"
    },
    {
      "status": "0x1",
      "cumulativeGasUsed": "0x3607bb",
      "logs": [
        {
          "address": "0x329031e60968c6823056caa8e348bcfc55195a74",
          "topics": [
            "0xc8c0997fd67965d4307a1f999729fd9602e5ed4aeda0653de98b8b0d3dc34d9c",
            "0x0000000000000000000000000000000000000000000000000000000000000002",
            "0x000000000000000000000000753dfc03b4d37b3a316d0fe5ab9f677c0d3c20f8"
          ],
          "data": "0x00000000000000000000000049f49cfe89050a8f8e48d3a31e33a8e26bc80d1d000000000000000000000000000000000000000000000000000000000000000000000000000000000000000000000000000000000000000000000000009896800000000000000000000000000000000000000000000000000000000069b2499a00000000000000000000000000000000000000000000000000000000000000c0000000000000000000000000000000000000000000000000000000000000000600000000000000000000000000000000000000000000000000000000000000045553444300000000000000000000000000000000000000000000000000000000",
          "blockHash": "0x0000000000000000000000000000000000000000000000000000000000000000",
          "blockNumber": "0x24f7503",
          "blockTimestamp": "0x69b248e6",
          "transactionHash": "0x7ccec3ab298bf5ae243af0fdddc5c5a134d2445b9a6b30f1752f8590044ee9ce",
          "transactionIndex": "0x17",
          "logIndex": "0x44",
          "removed": false
        }
      ],
      "logsBloom": "0x04100008000000000000000000000000000000000000000000000000000000004000000004000000000000000000000040000000000000004000000000000000000000000000000000000000000000000000000000000000000000000000000000000000000000000000000000000000000000000000000000000000000000000000000000000000000000000000000000000000000000000000000000000000000000000000000000000100000000000000000000000000000000000000000000000000000000000000000800000000000000000000000080000000000000000000000000000000000000000000000000000000048000000000000000000000",
      "type": "0x2",
      "transactionHash": "0x7ccec3ab298bf5ae243af0fdddc5c5a134d2445b9a6b30f1752f8590044ee9ce",
      "transactionIndex": "0x17",
      "blockHash": "0x0000000000000000000000000000000000000000000000000000000000000000",
      "blockNumber": "0x24f7503",
      "gasUsed": "0x28f5c",
      "effectiveGasPrice": "0x5b8d80",
      "blobGasUsed": "0x3a19",
      "from": "0x753dfc03b4d37b3a316d0fe5ab9f677c0d3c20f8",
      "to": "0x329031e60968c6823056caa8e348bcfc55195a74",
      "contractAddress": null,
      "daFootprintGasScalar": "0x8b",
      "l1BaseFeeScalar": "0x44d",
      "l1BlobBaseFee": "0x1",
      "l1BlobBaseFeeScalar": "0xa118b",
      "l1Fee": "0x53",
      "l1GasPrice": "0xa",
      "l1GasUsed": "0x6b2"
    },
    {
      "status": "0x1",
      "cumulativeGasUsed": "0x96ad8",
      "logs": [],
      "logsBloom": "0x00000000000000000000000000000000000000000000000000000000000000000000000000000000000000000000000000000000000000000000000000000000000000000000000000000000000000000000000000000000000000000000000000000000000000000000000000000000000000000000000000000000000000000000000000000000000000000000000000000000000000000000000000000000000000000000000000000000000000000000000000000000000000000000000000000000000000000000000000000000000000000000000000000000000000000000000000000000000000000000000000000000000000000000000000000000",
      "type": "0x2",
      "transactionHash": "0x0a4f708eb9c8211145a8bf91ead1997b29996dd1092dcb0d19d4ad37173e2385",
      "transactionIndex": "0x5",
      "blockHash": "0x0000000000000000000000000000000000000000000000000000000000000000",
      "blockNumber": "0x24f7504",
      "gasUsed": "0xac38",
      "effectiveGasPrice": "0x5b8d80",
      "blobGasUsed": "0x364c",
      "from": "0x506888a16695c670579d06a0314cafdd549329fa",
      "to": "0x49f49cfe89050a8f8e48d3a31e33a8e26bc80d1d",
      "contractAddress": null,
      "daFootprintGasScalar": "0x8b",
      "l1BaseFeeScalar": "0x44d",
      "l1BlobBaseFee": "0x1",
      "l1BlobBaseFeeScalar": "0xa118b",
      "l1Fee": "0x53",
      "l1GasPrice": "0xa",
      "l1GasUsed": "0x640"
    },
    {
      "status": "0x1",
      "cumulativeGasUsed": "0x2f236d",
      "logs": [
        {
          "address": "0x329031e60968c6823056caa8e348bcfc55195a74",
          "topics": [
            "0xdbaaf4c87ce30816c961a81d110622a3227ede77953d4383d514ff88ab2e0fd3",
            "0x0000000000000000000000000000000000000000000000000000000000000002",
            "0x000000000000000000000000506888a16695c670579d06a0314cafdd549329fa"
          ],
          "data": "0x0000000000000000000000000000000000000000000000000000000000000001",
          "blockHash": "0x0000000000000000000000000000000000000000000000000000000000000000",
          "blockNumber": "0x24f7505",
          "blockTimestamp": "0x69b248ea",
          "transactionHash": "0x2a5f0445bb03efb92e94b6863cd95c951d3ff6e4c6d1b7a2196cccc57a0be2c0",
          "transactionIndex": "0x15",
          "logIndex": "0x3a",
          "removed": false
        }
      ],
      "logsBloom": "0x04000008000000000000000000800000000000000000000000000000000000000000000004000000000000000000000000000000000000000000000000000000000000000000000000000000000000000000000000000000000000000000000000000000000000000000000000000000000000008000000000000000000000000000000000000000000000000000000000000000000000000000000000000000000000000000000000000100000020000000000000000000000000000000000000000000000000000000000000000000000000000000000080000000000000000800000000000000000000000000000100000000008000000000000000080000",
      "type": "0x2",
      "transactionHash": "0x2a5f0445bb03efb92e94b6863cd95c951d3ff6e4c6d1b7a2196cccc57a0be2c0",
      "transactionIndex": "0x15",
      "blockHash": "0x0000000000000000000000000000000000000000000000000000000000000000",
      "blockNumber": "0x24f7505",
      "gasUsed": "0x18158",
      "effectiveGasPrice": "0x5b8d80",
      "blobGasUsed": "0x364c",
      "from": "0x506888a16695c670579d06a0314cafdd549329fa",
      "to": "0x329031e60968c6823056caa8e348bcfc55195a74",
      "contractAddress": null,
      "daFootprintGasScalar": "0x8b",
      "l1BaseFeeScalar": "0x44d",
      "l1BlobBaseFee": "0x1",
      "l1BlobBaseFeeScalar": "0xa118b",
      "l1Fee": "0x53",
      "l1GasPrice": "0xa",
      "l1GasUsed": "0x640"
    },
    {
      "status": "0x1",
      "cumulativeGasUsed": "0x1bca3b",
      "logs": [],
      "logsBloom": "0x00000000000000000000000000000000000000000000000000000000000000000000000000000000000000000000000000000000000000000000000000000000000000000000000000000000000000000000000000000000000000000000000000000000000000000000000000000000000000000000000000000000000000000000000000000000000000000000000000000000000000000000000000000000000000000000000000000000000000000000000000000000000000000000000000000000000000000000000000000000000000000000000000000000000000000000000000000000000000000000000000000000000000000000000000000000",
      "type": "0x2",
      "transactionHash": "0x8c734721e39deaf3e1271826c50af7a17cf5d12819bc9e7aae526e11597ed049",
      "transactionIndex": "0xd",
      "blockHash": "0x0000000000000000000000000000000000000000000000000000000000000000",
      "blockNumber": "0x24f7506",
      "gasUsed": "0xac38",
      "effectiveGasPrice": "0x5b8d80",
      "blobGasUsed": "0x364c",
      "from": "0x280ed4fbbbe9ccb25b9de910638efd7920023998",
      "to": "0x49f49cfe89050a8f8e48d3a31e33a8e26bc80d1d",
      "contractAddress": null,
      "daFootprintGasScalar": "0x8b",
      "l1BaseFeeScalar": "0x44d",
      "l1BlobBaseFee": "0x1",
      "l1BlobBaseFeeScalar": "0xa118b",
      "l1Fee": "0x130",
      "l1GasPrice": "0xa",
      "l1GasUsed": "0x640"
    },
    {
      "status": "0x1",
      "cumulativeGasUsed": "0x3c68db",
      "logs": [
        {
          "address": "0x329031e60968c6823056caa8e348bcfc55195a74",
          "topics": [
            "0xdbaaf4c87ce30816c961a81d110622a3227ede77953d4383d514ff88ab2e0fd3",
            "0x0000000000000000000000000000000000000000000000000000000000000002",
            "0x000000000000000000000000280ed4fbbbe9ccb25b9de910638efd7920023998"
          ],
          "data": "0x0000000000000000000000000000000000000000000000000000000000000001",
          "blockHash": "0x0000000000000000000000000000000000000000000000000000000000000000",
          "blockNumber": "0x24f7507",
          "blockTimestamp": "0x69b248ee",
          "transactionHash": "0x10605318b36048003e0db0f12f46b4bbd0cadfdc9903fc64a2c2637d2dbcfe31",
          "transactionIndex": "0x1e",
          "logIndex": "0x73",
          "removed": false
        }
      ],
      "logsBloom": "0x04000008000000000000000000800000000000000000000000000000000000000000000004000000000000000000000000000000000000000000000000000000000000000000000000000000000000000000000000000000000000000000000000000000000000001000000000000000000000008000000000000000000000000000000000000000000000000000000000000000000000000000000000000000000000000000000000000120000000000000000000000000000000000000000000000000000000000000000000000000000000000000000080000000000000000000000000000000000000000000000100000000008000000000000000000020",
      "type": "0x2",
      "transactionHash": "0x10605318b36048003e0db0f12f46b4bbd0cadfdc9903fc64a2c2637d2dbcfe31",
      "transactionIndex": "0x1e",
      "blockHash": "0x0000000000000000000000000000000000000000000000000000000000000000",
      "blockNumber": "0x24f7507",
      "gasUsed": "0x13e8c",
      "effectiveGasPrice": "0x5b8d80",
      "blobGasUsed": "0x364c",
      "from": "0x280ed4fbbbe9ccb25b9de910638efd7920023998",
      "to": "0x329031e60968c6823056caa8e348bcfc55195a74",
      "contractAddress": null,
      "daFootprintGasScalar": "0x8b",
      "l1BaseFeeScalar": "0x44d",
      "l1BlobBaseFee": "0x1",
      "l1BlobBaseFeeScalar": "0xa118b",
      "l1Fee": "0x53",
      "l1GasPrice": "0xa",
      "l1GasUsed": "0x640"
    },
    {
      "status": "0x1",
      "cumulativeGasUsed": "0x1883a4",
      "logs": [],
      "logsBloom": "0x00000000000000000000000000000000000000000000000000000000000000000000000000000000000000000000000000000000000000000000000000000000000000000000000000000000000000000000000000000000000000000000000000000000000000000000000000000000000000000000000000000000000000000000000000000000000000000000000000000000000000000000000000000000000000000000000000000000000000000000000000000000000000000000000000000000000000000000000000000000000000000000000000000000000000000000000000000000000000000000000000000000000000000000000000000000",
      "type": "0x2",
      "transactionHash": "0xab57b5a9bc69ee855d44197d41d162e335b8db3a94c940eb83f707ddabcd858a",
      "transactionIndex": "0x12",
      "blockHash": "0x0000000000000000000000000000000000000000000000000000000000000000",
      "blockNumber": "0x24f7508",
      "gasUsed": "0xac38",
      "effectiveGasPrice": "0x5b8d80",
      "blobGasUsed": "0x364c",
      "from": "0x753dfc03b4d37b3a316d0fe5ab9f677c0d3c20f8",
      "to": "0x49f49cfe89050a8f8e48d3a31e33a8e26bc80d1d",
      "contractAddress": null,
      "daFootprintGasScalar": "0x8b",
      "l1BaseFeeScalar": "0x44d",
      "l1BlobBaseFee": "0x1",
      "l1BlobBaseFeeScalar": "0xa118b",
      "l1Fee": "0x53",
      "l1GasPrice": "0xa",
      "l1GasUsed": "0x640"
    },
    {
      "status": "0x1",
      "cumulativeGasUsed": "0x3a6980",
      "logs": [
        {
          "address": "0x329031e60968c6823056caa8e348bcfc55195a74",
          "topics": [
            "0xc8c0997fd67965d4307a1f999729fd9602e5ed4aeda0653de98b8b0d3dc34d9c",
            "0x0000000000000000000000000000000000000000000000000000000000000003",
            "0x000000000000000000000000753dfc03b4d37b3a316d0fe5ab9f677c0d3c20f8"
          ],
          "data": "0x00000000000000000000000049f49cfe89050a8f8e48d3a31e33a8e26bc80d1d000000000000000000000000000000000000000000000000000000000000000000000000000000000000000000000000000000000000000000000000009896800000000000000000000000000000000000000000000000000000000069b249a600000000000000000000000000000000000000000000000000000000000000c0000000000000000000000000000000000000000000000000000000000000000600000000000000000000000000000000000000000000000000000000000000045553444300000000000000000000000000000000000000000000000000000000",
          "blockHash": "0xe4ea6166f98fb68d5aa666fc3d0c405fd134834200c589eb22908387d973a33d",
          "blockNumber": "0x24f7509",
          "blockTimestamp": "0x69b248f2",
          "transactionHash": "0xbd4f7408deacbe9d3f5f595f1f56524d311ea32b61fed76c41a0a3f41c5c430b",
          "transactionIndex": "0x11",
          "logIndex": "0x91",
          "removed": false
        }
      ],
      "logsBloom": "0x00100008000000000000000000000000000000000000000000000000000000004000000004000000000000000000000040000000020000004000000000000000000000000000000000000000000000000000000000000000000000000000000000000000000000000000000000000000000000000000000000000000000000000000000000000000000000000000000000000000000000000000000000000000000000000000000000000000000000000000000000800000000000000000400000000000000000000000000800000000000000000000000080000000000000000000000000000000000000000000000000000000040000000000000000000000",
      "type": "0x2",
      "transactionHash": "0xbd4f7408deacbe9d3f5f595f1f56524d311ea32b61fed76c41a0a3f41c5c430b",
      "transactionIndex": "0x11",
      "blockHash": "0xe4ea6166f98fb68d5aa666fc3d0c405fd134834200c589eb22908387d973a33d",
      "blockNumber": "0x24f7509",
      "gasUsed": "0x28f5c",
      "effectiveGasPrice": "0x5b8d80",
      "blobGasUsed": "0x3a19",
      "from": "0x753dfc03b4d37b3a316d0fe5ab9f677c0d3c20f8",
      "to": "0x329031e60968c6823056caa8e348bcfc55195a74",
      "contractAddress": null,
      "daFootprintGasScalar": "0x8b",
      "l1BaseFeeScalar": "0x44d",
      "l1BlobBaseFee": "0x1",
      "l1BlobBaseFeeScalar": "0xa118b",
      "l1Fee": "0x5a",
      "l1GasPrice": "0xa",
      "l1GasUsed": "0x6bf"
    },
    {
      "status": "0x1",
      "cumulativeGasUsed": "0x367f9a",
      "logs": [],
      "logsBloom": "0x00000000000000000000000000000000000000000000000000000000000000000000000000000000000000000000000000000000000000000000000000000000000000000000000000000000000000000000000000000000000000000000000000000000000000000000000000000000000000000000000000000000000000000000000000000000000000000000000000000000000000000000000000000000000000000000000000000000000000000000000000000000000000000000000000000000000000000000000000000000000000000000000000000000000000000000000000000000000000000000000000000000000000000000000000000000",
      "type": "0x2",
      "transactionHash": "0xe558002edbe099cd25db6b135ffd21116a4aa33879b935b0bd94bbd10a9c4bec",
      "transactionIndex": "0x18",
      "blockHash": "0xae4fe33fbf2528aa241497235f3446ae60e420fa9b61b93096cea570af35ba01",
      "blockNumber": "0x24f750a",
      "gasUsed": "0xac38",
      "effectiveGasPrice": "0x5b8d80",
      "blobGasUsed": "0x364c",
      "from": "0x506888a16695c670579d06a0314cafdd549329fa",
      "to": "0x49f49cfe89050a8f8e48d3a31e33a8e26bc80d1d",
      "contractAddress": null,
      "daFootprintGasScalar": "0x8b",
      "l1BaseFeeScalar": "0x44d",
      "l1BlobBaseFee": "0x1",
      "l1BlobBaseFeeScalar": "0xa118b",
      "l1Fee": "0x53",
      "l1GasPrice": "0xa",
      "l1GasUsed": "0x640"
    },
    {
      "status": "0x1",
      "cumulativeGasUsed": "0x6f34cd",
      "logs": [
        {
          "address": "0x329031e60968c6823056caa8e348bcfc55195a74",
          "topics": [
            "0xdbaaf4c87ce30816c961a81d110622a3227ede77953d4383d514ff88ab2e0fd3",
            "0x0000000000000000000000000000000000000000000000000000000000000003",
            "0x000000000000000000000000506888a16695c670579d06a0314cafdd549329fa"
          ],
          "data": "0x0000000000000000000000000000000000000000000000000000000000000002",
          "blockHash": "0x6033642c1c735991af0c8c051f50603b87f84febaf1a290d84798d035f5be0ae",
          "blockNumber": "0x24f750b",
          "blockTimestamp": "0x69b248f6",
          "transactionHash": "0x55265f2078d4ebac826df49114064ad1d9ea5b99a6b659b61a886942ff96bc46",
          "transactionIndex": "0x1e",
          "logIndex": "0x198",
          "removed": false
        }
      ],
      "logsBloom": "0x00000008000000000000000000800000000000000000000000000000000000000000000004000000000000000000000000000000020000000000000000000000000000000000000000000000000000000000000000000000000000000000000000000000000000000000000000000000000000008000000000000000000000000000000000000000000000000000000000000000000000000000000000000000000000000000000000000000000020000000000000800000000000000000400000000000000000000000000000000000000000000000000080000000000000000800000000000000000000000000000100000000000000000000000000080000",
      "type": "0x2",
      "transactionHash": "0x55265f2078d4ebac826df49114064ad1d9ea5b99a6b659b61a886942ff96bc46",
      "transactionIndex": "0x1e",
      "blockHash": "0x6033642c1c735991af0c8c051f50603b87f84febaf1a290d84798d035f5be0ae",
      "blockNumber": "0x24f750b",
      "gasUsed": "0x1d956",
      "effectiveGasPrice": "0x5b8d80",
      "blobGasUsed": "0x364c",
      "from": "0x506888a16695c670579d06a0314cafdd549329fa",
      "to": "0x329031e60968c6823056caa8e348bcfc55195a74",
      "contractAddress": null,
      "daFootprintGasScalar": "0x8b",
      "l1BaseFeeScalar": "0x44d",
      "l1BlobBaseFee": "0x1",
      "l1BlobBaseFeeScalar": "0xa118b",
      "l1Fee": "0x53",
      "l1GasPrice": "0xa",
      "l1GasUsed": "0x640"
    },
    {
      "status": "0x1",
      "cumulativeGasUsed": "0x2e4dc2",
      "logs": [],
      "logsBloom": "0x00000000000000000000000000000000000000000000000000000000000000000000000000000000000000000000000000000000000000000000000000000000000000000000000000000000000000000000000000000000000000000000000000000000000000000000000000000000000000000000000000000000000000000000000000000000000000000000000000000000000000000000000000000000000000000000000000000000000000000000000000000000000000000000000000000000000000000000000000000000000000000000000000000000000000000000000000000000000000000000000000000000000000000000000000000000",
      "type": "0x2",
      "transactionHash": "0x8c1bd3c1fbc6e49053b2e223e09e07c904e8dfbdd08605316827c2d3169fa026",
      "transactionIndex": "0x19",
      "blockHash": "0x0000000000000000000000000000000000000000000000000000000000000000",
      "blockNumber": "0x24f750c",
      "gasUsed": "0xac38",
      "effectiveGasPrice": "0x5b8d80",
      "blobGasUsed": "0x364c",
      "from": "0x280ed4fbbbe9ccb25b9de910638efd7920023998",
      "to": "0x49f49cfe89050a8f8e48d3a31e33a8e26bc80d1d",
      "contractAddress": null,
      "daFootprintGasScalar": "0x8b",
      "l1BaseFeeScalar": "0x44d",
      "l1BlobBaseFee": "0x1",
      "l1BlobBaseFeeScalar": "0xa118b",
      "l1Fee": "0x53",
      "l1GasPrice": "0xa",
      "l1GasUsed": "0x640"
    },
    {
      "status": "0x1",
      "cumulativeGasUsed": "0x3108dd",
      "logs": [
        {
          "address": "0x329031e60968c6823056caa8e348bcfc55195a74",
          "topics": [
            "0xdbaaf4c87ce30816c961a81d110622a3227ede77953d4383d514ff88ab2e0fd3",
            "0x0000000000000000000000000000000000000000000000000000000000000003",
            "0x000000000000000000000000280ed4fbbbe9ccb25b9de910638efd7920023998"
          ],
          "data": "0x0000000000000000000000000000000000000000000000000000000000000001",
          "blockHash": "0x0000000000000000000000000000000000000000000000000000000000000000",
          "blockNumber": "0x24f750d",
          "blockTimestamp": "0x69b248fa",
          "transactionHash": "0xa3acf05186c2c0d521ec919f452b0bedcba81b164c22fe2557331ddedf2a28d1",
          "transactionIndex": "0x15",
          "logIndex": "0x64",
          "removed": false
        }
      ],
      "logsBloom": "0x00000008000000000000000000800000000000000000000000000000000000000000000004000000000000000000000000000000020000000000000000000000000000000000000000000000000000000000000000000000000000000000000000000000000000001000000000000000000000008000000000000000000000000000000000000000000000000000000000000000000000000000000000000000000000000000000000000020000000000000000000800000000000000000400000000000000000000000000000000000000000000000000080000000000000000000000000000000000000000000000100000000000000000000000000000020",
      "type": "0x2",
      "transactionHash": "0xa3acf05186c2c0d521ec919f452b0bedcba81b164c22fe2557331ddedf2a28d1",
      "transactionIndex": "0x15",
      "blockHash": "0x0000000000000000000000000000000000000000000000000000000000000000",
      "blockNumber": "0x24f750d",
      "gasUsed": "0x13e8c",
      "effectiveGasPrice": "0x5b8d80",
      "blobGasUsed": "0x364c",
      "from": "0x280ed4fbbbe9ccb25b9de910638efd7920023998",
      "to": "0x329031e60968c6823056caa8e348bcfc55195a74",
      "contractAddress": null,
      "daFootprintGasScalar": "0x8b",
      "l1BaseFeeScalar": "0x44d",
      "l1BlobBaseFee": "0x1",
      "l1BlobBaseFeeScalar": "0xa118b",
      "l1Fee": "0x53",
      "l1GasPrice": "0xa",
      "l1GasUsed": "0x640"
    },
    {
      "status": "0x1",
      "cumulativeGasUsed": "0x25a0d4",
      "logs": [],
      "logsBloom": "0x00000000000000000000000000000000000000000000000000000000000000000000000000000000000000000000000000000000000000000000000000000000000000000000000000000000000000000000000000000000000000000000000000000000000000000000000000000000000000000000000000000000000000000000000000000000000000000000000000000000000000000000000000000000000000000000000000000000000000000000000000000000000000000000000000000000000000000000000000000000000000000000000000000000000000000000000000000000000000000000000000000000000000000000000000000000",
      "type": "0x2",
      "transactionHash": "0x0abd648ec7018aacf0c62cba63c53373f76e47644691e716e0847e05641b059c",
      "transactionIndex": "0xd",
      "blockHash": "0x0000000000000000000000000000000000000000000000000000000000000000",
      "blockNumber": "0x24f750e",
      "gasUsed": "0xac38",
      "effectiveGasPrice": "0x5b8d80",
      "blobGasUsed": "0x364c",
      "from": "0x753dfc03b4d37b3a316d0fe5ab9f677c0d3c20f8",
      "to": "0x49f49cfe89050a8f8e48d3a31e33a8e26bc80d1d",
      "contractAddress": null,
      "daFootprintGasScalar": "0x8b",
      "l1BaseFeeScalar": "0x44d",
      "l1BlobBaseFee": "0x1",
      "l1BlobBaseFeeScalar": "0xa118b",
      "l1Fee": "0x53",
      "l1GasPrice": "0xa",
      "l1GasUsed": "0x640"
    },
    {
      "status": "0x1",
      "cumulativeGasUsed": "0x880769",
      "logs": [
        {
          "address": "0x329031e60968c6823056caa8e348bcfc55195a74",
          "topics": [
            "0xc8c0997fd67965d4307a1f999729fd9602e5ed4aeda0653de98b8b0d3dc34d9c",
            "0x0000000000000000000000000000000000000000000000000000000000000004",
            "0x000000000000000000000000753dfc03b4d37b3a316d0fe5ab9f677c0d3c20f8"
          ],
          "data": "0x00000000000000000000000049f49cfe89050a8f8e48d3a31e33a8e26bc80d1d000000000000000000000000000000000000000000000000000000000000000000000000000000000000000000000000000000000000000000000000009896800000000000000000000000000000000000000000000000000000000069b249b200000000000000000000000000000000000000000000000000000000000000c0000000000000000000000000000000000000000000000000000000000000000600000000000000000000000000000000000000000000000000000000000000045553444300000000000000000000000000000000000000000000000000000000",
          "blockHash": "0x0000000000000000000000000000000000000000000000000000000000000000",
          "blockNumber": "0x24f750f",
          "blockTimestamp": "0x69b248fe",
          "transactionHash": "0xee326f01b8f2a3b9eb41a102a05aca22cb11463e3d7c11fd1d8cab1d607ee60a",
          "transactionIndex": "0x1b",
          "logIndex": "0xb9",
          "removed": false
        }
      ],
      "logsBloom": "0x00100008000000000000000000000000000000000000000000000000000000004000000004000000000000000000000040000000000000004000000000000000000000000000000000000000000000000000000000000000000000000000000008000000000000000000000000000000000000000000000000000000000000000000000000000000000000000000000000000000000000000000000000000000000000000000000000000000000000000000000000000000002000000000000000000000000000000000000800000000000000008000000080000000000000000000000000000000000000000000000000000000040000000000000000000000",
      "type": "0x2",
      "transactionHash": "0xee326f01b8f2a3b9eb41a102a05aca22cb11463e3d7c11fd1d8cab1d607ee60a",
      "transactionIndex": "0x1b",
      "blockHash": "0x0000000000000000000000000000000000000000000000000000000000000000",
      "blockNumber": "0x24f750f",
      "gasUsed": "0x28f5c",
      "effectiveGasPrice": "0x5b8d80",
      "blobGasUsed": "0x3a19",
      "from": "0x753dfc03b4d37b3a316d0fe5ab9f677c0d3c20f8",
      "to": "0x329031e60968c6823056caa8e348bcfc55195a74",
      "contractAddress": null,
      "daFootprintGasScalar": "0x8b",
      "l1BaseFeeScalar": "0x44d",
      "l1BlobBaseFee": "0x1",
      "l1BlobBaseFeeScalar": "0xa118b",
      "l1Fee": "0x53",
      "l1GasPrice": "0xa",
      "l1GasUsed": "0x6bf"
    },
    {
      "status": "0x1",
      "cumulativeGasUsed": "0x143a85",
      "logs": [],
      "logsBloom": "0x00000000000000000000000000000000000000000000000000000000000000000000000000000000000000000000000000000000000000000000000000000000000000000000000000000000000000000000000000000000000000000000000000000000000000000000000000000000000000000000000000000000000000000000000000000000000000000000000000000000000000000000000000000000000000000000000000000000000000000000000000000000000000000000000000000000000000000000000000000000000000000000000000000000000000000000000000000000000000000000000000000000000000000000000000000000",
      "type": "0x2",
      "transactionHash": "0xb903df02dd40e9d931c0a0a4ab3b57646e89478d8d1861b797725a4a520cbb82",
      "transactionIndex": "0xd",
      "blockHash": "0x36ab9b4c3b934dedb263d1c2cb871416f8e365c8673b86f8ac01eb18b3ab23b6",
      "blockNumber": "0x24f7510",
      "gasUsed": "0xac38",
      "effectiveGasPrice": "0x5b8d80",
      "blobGasUsed": "0x364c",
      "from": "0x753dfc03b4d37b3a316d0fe5ab9f677c0d3c20f8",
      "to": "0x49f49cfe89050a8f8e48d3a31e33a8e26bc80d1d",
      "contractAddress": null,
      "daFootprintGasScalar": "0x8b",
      "l1BaseFeeScalar": "0x44d",
      "l1BlobBaseFee": "0x1",
      "l1BlobBaseFeeScalar": "0xa118b",
      "l1Fee": "0x53",
      "l1GasPrice": "0xa",
      "l1GasUsed": "0x640"
    },
    {
      "status": "0x1",
      "cumulativeGasUsed": "0xb1322b",
      "logs": [
        {
          "address": "0x329031e60968c6823056caa8e348bcfc55195a74",
          "topics": [
            "0xc8c0997fd67965d4307a1f999729fd9602e5ed4aeda0653de98b8b0d3dc34d9c",
            "0x0000000000000000000000000000000000000000000000000000000000000005",
            "0x000000000000000000000000753dfc03b4d37b3a316d0fe5ab9f677c0d3c20f8"
          ],
          "data": "0x00000000000000000000000049f49cfe89050a8f8e48d3a31e33a8e26bc80d1d000000000000000000000000000000000000000000000000000000000000000000000000000000000000000000000000000000000000000000000000009896800000000000000000000000000000000000000000000000000000000069b249b600000000000000000000000000000000000000000000000000000000000000c0000000000000000000000000000000000000000000000000000000000000000600000000000000000000000000000000000000000000000000000000000000045553444300000000000000000000000000000000000000000000000000000000",
          "blockHash": "0x0000000000000000000000000000000000000000000000000000000000000000",
          "blockNumber": "0x24f7511",
          "blockTimestamp": "0x69b24902",
          "transactionHash": "0x4fe4edb5958315f7422bd15a5af0acd2e0ae988000de4f9ff8b891010e7d3a60",
          "transactionIndex": "0x13",
          "logIndex": "0x7a",
          "removed": false
        }
      ],
      "logsBloom": "0x00100008000000000000000000000000000000000000000000000000000000004000000004000000000000000000000040000000000000004000000000000000000010000000000000000000000000000000000000000000000000000000000000000000000000000000000000000000000000000000000000000000000000000000000000000000000000000000001000000800000000000000000000000000000000000000000000000000000000000000000000000000000000000000000000000000000000000000000800000000000000000000000080000000000000000000000000000000000000000000000000000000040000000000000000000000",
      "type": "0x2",
      "transactionHash": "0x4fe4edb5958315f7422bd15a5af0acd2e0ae988000de4f9ff8b891010e7d3a60",
      "transactionIndex": "0x13",
      "blockHash": "0x0000000000000000000000000000000000000000000000000000000000000000",
      "blockNumber": "0x24f7511",
      "gasUsed": "0x28f5c",
      "effectiveGasPrice": "0x5b8d80",
      "blobGasUsed": "0x3a19",
      "from": "0x753dfc03b4d37b3a316d0fe5ab9f677c0d3c20f8",
      "to": "0x329031e60968c6823056caa8e348bcfc55195a74",
      "contractAddress": null,
      "daFootprintGasScalar": "0x8b",
      "l1BaseFeeScalar": "0x44d",
      "l1BlobBaseFee": "0x1",
      "l1BlobBaseFeeScalar": "0xa118b",
      "l1Fee": "0x53",
      "l1GasPrice": "0xa",
      "l1GasUsed": "0x6bf"
    },
    {
      "status": "0x1",
      "cumulativeGasUsed": "0xc47027",
      "logs": [],
      "logsBloom": "0x00000000000000000000000000000000000000000000000000000000000000000000000000000000000000000000000000000000000000000000000000000000000000000000000000000000000000000000000000000000000000000000000000000000000000000000000000000000000000000000000000000000000000000000000000000000000000000000000000000000000000000000000000000000000000000000000000000000000000000000000000000000000000000000000000000000000000000000000000000000000000000000000000000000000000000000000000000000000000000000000000000000000000000000000000000000",
      "type": "0x2",
      "transactionHash": "0xac23f5f8022f7529f305f721269738fdd46fcf12306866bf1e12411a2919cd92",
      "transactionIndex": "0x22",
      "blockHash": "0x0000000000000000000000000000000000000000000000000000000000000000",
      "blockNumber": "0x24f7511",
      "gasUsed": "0xac38",
      "effectiveGasPrice": "0x5b8d80",
      "blobGasUsed": "0x364c",
      "from": "0x506888a16695c670579d06a0314cafdd549329fa",
      "to": "0x49f49cfe89050a8f8e48d3a31e33a8e26bc80d1d",
      "contractAddress": null,
      "daFootprintGasScalar": "0x8b",
      "l1BaseFeeScalar": "0x44d",
      "l1BlobBaseFee": "0x1",
      "l1BlobBaseFeeScalar": "0xa118b",
      "l1Fee": "0x53",
      "l1GasPrice": "0xa",
      "l1GasUsed": "0x640"
    },
    {
      "status": "0x1",
      "cumulativeGasUsed": "0x22c488",
      "logs": [
        {
          "address": "0x329031e60968c6823056caa8e348bcfc55195a74",
          "topics": [
            "0xdbaaf4c87ce30816c961a81d110622a3227ede77953d4383d514ff88ab2e0fd3",
            "0x0000000000000000000000000000000000000000000000000000000000000005",
            "0x000000000000000000000000506888a16695c670579d06a0314cafdd549329fa"
          ],
          "data": "0x0000000000000000000000000000000000000000000000000000000000000001",
          "blockHash": "0x0000000000000000000000000000000000000000000000000000000000000000",
          "blockNumber": "0x24f7512",
          "blockTimestamp": "0x69b24904",
          "transactionHash": "0xde3051a51f4a199d6f4d44a5db8c513ccea4e79c87450e659ac863f4022e8b70",
          "transactionIndex": "0x12",
          "logIndex": "0x2c",
          "removed": false
        }
      ],
      "logsBloom": "0x00000008000000000000000000800000000000000000000000000000000000000000000004000000000000000000000000000000000000000000000000000000000010000000000000000000000000000000000000000000000000000000000000000000000000000000000000000000000000008000000000000000000000000000000000000000000000000000001000000800000000000000000000000000000000000000000000000000000020000000000000000000000000000000000000000000000000000000000000000000000000000000000080000000000000000800000000000000000000000000000100000000000000000000000000080000",
      "type": "0x2",
      "transactionHash": "0xde3051a51f4a199d6f4d44a5db8c513ccea4e79c87450e659ac863f4022e8b70",
      "transactionIndex": "0x12",
      "blockHash": "0x0000000000000000000000000000000000000000000000000000000000000000",
      "blockNumber": "0x24f7512",
      "gasUsed": "0x18158",
      "effectiveGasPrice": "0x5b8d80",
      "blobGasUsed": "0x364c",
      "from": "0x506888a16695c670579d06a0314cafdd549329fa",
      "to": "0x329031e60968c6823056caa8e348bcfc55195a74",
      "contractAddress": null,
      "daFootprintGasScalar": "0x8b",
      "l1BaseFeeScalar": "0x44d",
      "l1BlobBaseFee": "0x1",
      "l1BlobBaseFeeScalar": "0xa118b",
      "l1Fee": "0x53",
      "l1GasPrice": "0xa",
      "l1GasUsed": "0x640"
    },
    {
      "status": "0x1",
      "cumulativeGasUsed": "0x85b44",
      "logs": [],
      "logsBloom": "0x00000000000000000000000000000000000000000000000000000000000000000000000000000000000000000000000000000000000000000000000000000000000000000000000000000000000000000000000000000000000000000000000000000000000000000000000000000000000000000000000000000000000000000000000000000000000000000000000000000000000000000000000000000000000000000000000000000000000000000000000000000000000000000000000000000000000000000000000000000000000000000000000000000000000000000000000000000000000000000000000000000000000000000000000000000000",
      "type": "0x2",
      "transactionHash": "0x46162c47e9996e20d459e1612c5608c84e3147419f9fcd22aea3d5af00d1d31a",
      "transactionIndex": "0x5",
      "blockHash": "0x0000000000000000000000000000000000000000000000000000000000000000",
      "blockNumber": "0x24f7513",
      "gasUsed": "0xac38",
      "effectiveGasPrice": "0x5b8d80",
      "blobGasUsed": "0x364c",
      "from": "0x280ed4fbbbe9ccb25b9de910638efd7920023998",
      "to": "0x49f49cfe89050a8f8e48d3a31e33a8e26bc80d1d",
      "contractAddress": null,
      "daFootprintGasScalar": "0x8b",
      "l1BaseFeeScalar": "0x44d",
      "l1BlobBaseFee": "0x1",
      "l1BlobBaseFeeScalar": "0xa118b",
      "l1Fee": "0x53",
      "l1GasPrice": "0xa",
      "l1GasUsed": "0x640"
    },
    {
      "status": "0x1",
      "cumulativeGasUsed": "0x3e1227",
      "logs": [
        {
          "address": "0x329031e60968c6823056caa8e348bcfc55195a74",
          "topics": [
            "0xdbaaf4c87ce30816c961a81d110622a3227ede77953d4383d514ff88ab2e0fd3",
            "0x0000000000000000000000000000000000000000000000000000000000000005",
            "0x000000000000000000000000280ed4fbbbe9ccb25b9de910638efd7920023998"
          ],
          "data": "0x0000000000000000000000000000000000000000000000000000000000000001",
          "blockHash": "0xb68f877070bc2330a55e6ddec05298e5d2ae2592e235ed5197bf9e4ac124bf72",
          "blockNumber": "0x24f7514",
          "blockTimestamp": "0x69b24908",
          "transactionHash": "0xa45600b60b0050ca56708dde11de21e6c1bc717f6442497e3857bf735d6414b6",
          "transactionIndex": "0x1d",
          "logIndex": "0x74",
          "removed": false
        }
      ],
      "logsBloom": "0x00000008000000000000000000800000000000000000000000000000000000000000000004000000000000000000000000000000000000000000000000000000000010000000000000000000000000000000000000000000000000000000000000000000000000001000000000000000000000008000000000000000000000000000000000000000000000000000001000000800000000000000000000000000000000000000000000000020000000000000000000000000000000000000000000000000000000000000000000000000000000000000000080000000000000000000000000000000000000000000000100000000000000000000000000000020",
      "type": "0x2",
      "transactionHash": "0xa45600b60b0050ca56708dde11de21e6c1bc717f6442497e3857bf735d6414b6",
      "transactionIndex": "0x1d",
      "blockHash": "0xb68f877070bc2330a55e6ddec05298e5d2ae2592e235ed5197bf9e4ac124bf72",
      "blockNumber": "0x24f7514",
      "gasUsed": "0x13e8c",
      "effectiveGasPrice": "0x5b8d80",
      "blobGasUsed": "0x364c",
      "from": "0x280ed4fbbbe9ccb25b9de910638efd7920023998",
      "to": "0x329031e60968c6823056caa8e348bcfc55195a74",
      "contractAddress": null,
      "daFootprintGasScalar": "0x8b",
      "l1BaseFeeScalar": "0x44d",
      "l1BlobBaseFee": "0x1",
      "l1BlobBaseFeeScalar": "0xa118b",
      "l1Fee": "0x53",
      "l1GasPrice": "0xa",
      "l1GasUsed": "0x640"
    },
    {
      "status": "0x1",
      "cumulativeGasUsed": "0xd1a4e",
      "logs": [],
      "logsBloom": "0x00000000000000000000000000000000000000000000000000000000000000000000000000000000000000000000000000000000000000000000000000000000000000000000000000000000000000000000000000000000000000000000000000000000000000000000000000000000000000000000000000000000000000000000000000000000000000000000000000000000000000000000000000000000000000000000000000000000000000000000000000000000000000000000000000000000000000000000000000000000000000000000000000000000000000000000000000000000000000000000000000000000000000000000000000000000",
      "type": "0x2",
      "transactionHash": "0x37a6945ae02da0e735d2af2a00282284fb3fa13026eac7df6d18aaa2198f7830",
      "transactionIndex": "0x9",
      "blockHash": "0x0000000000000000000000000000000000000000000000000000000000000000",
      "blockNumber": "0x24f7516",
      "gasUsed": "0xac38",
      "effectiveGasPrice": "0x5b8d80",
      "blobGasUsed": "0x364c",
      "from": "0x753dfc03b4d37b3a316d0fe5ab9f677c0d3c20f8",
      "to": "0x49f49cfe89050a8f8e48d3a31e33a8e26bc80d1d",
      "contractAddress": null,
      "daFootprintGasScalar": "0x8b",
      "l1BaseFeeScalar": "0x44d",
      "l1BlobBaseFee": "0x1",
      "l1BlobBaseFeeScalar": "0xa118b",
      "l1Fee": "0x53",
      "l1GasPrice": "0xa",
      "l1GasUsed": "0x640"
    },
    {
      "status": "0x1",
      "cumulativeGasUsed": "0x2d1f6f",
      "logs": [
        {
          "address": "0x329031e60968c6823056caa8e348bcfc55195a74",
          "topics": [
            "0xc8c0997fd67965d4307a1f999729fd9602e5ed4aeda0653de98b8b0d3dc34d9c",
            "0x0000000000000000000000000000000000000000000000000000000000000006",
            "0x000000000000000000000000753dfc03b4d37b3a316d0fe5ab9f677c0d3c20f8"
          ],
          "data": "0x00000000000000000000000049f49cfe89050a8f8e48d3a31e33a8e26bc80d1d000000000000000000000000000000000000000000000000000000000000000000000000000000000000000000000000000000000000000000000000009896800000000000000000000000000000000000000000000000000000000069b249c200000000000000000000000000000000000000000000000000000000000000c0000000000000000000000000000000000000000000000000000000000000000600000000000000000000000000000000000000000000000000000000000000045553444300000000000000000000000000000000000000000000000000000000",
          "blockHash": "0xce40053523ff6bcda7a10f2df28c02ef07e8373ec56c2d33bdd7f70ce36902e7",
          "blockNumber": "0x24f7517",
          "blockTimestamp": "0x69b2490e",
          "transactionHash": "0x508f6d98c6d04ccf4ef0e1e565b707d3f6c14c05086bd409889c916d1039df91",
          "transactionIndex": "0x18",
          "logIndex": "0x3b",
          "removed": false
        }
      ],
      "logsBloom": "0x00100008000000000000000000000000000000000000000000000000000000004000000004000000000000000000000040000000000400004000000000000000000000000000000000000000000000000000000000000000000000000000000000000000000000000000000000000000000000000000000000000000000000000000000400000000000000000000000000000000000000000000000000000000000000000000000000000000000000000000000000000000000000080000000000000000000000000000000800000000000000000000000080000000000000000000000000000000000000000000000000000000040000000000000000000000",
      "type": "0x2",
      "transactionHash": "0x508f6d98c6d04ccf4ef0e1e565b707d3f6c14c05086bd409889c916d1039df91",
      "transactionIndex": "0x18",
      "blockHash": "0xce40053523ff6bcda7a10f2df28c02ef07e8373ec56c2d33bdd7f70ce36902e7",
      "blockNumber": "0x24f7517",
      "gasUsed": "0x28f5c",
      "effectiveGasPrice": "0x5b8d80",
      "blobGasUsed": "0x3a19",
      "from": "0x753dfc03b4d37b3a316d0fe5ab9f677c0d3c20f8",
      "to": "0x329031e60968c6823056caa8e348bcfc55195a74",
      "contractAddress": null,
      "daFootprintGasScalar": "0x8b",
      "l1BaseFeeScalar": "0x44d",
      "l1BlobBaseFee": "0x1",
      "l1BlobBaseFeeScalar": "0xa118b",
      "l1Fee": "0x5a",
      "l1GasPrice": "0xa",
      "l1GasUsed": "0x6bf"
    },
    {
      "status": "0x1",
      "cumulativeGasUsed": "0x418704",
      "logs": [],
      "logsBloom": "0x00000000000000000000000000000000000000000000000000000000000000000000000000000000000000000000000000000000000000000000000000000000000000000000000000000000000000000000000000000000000000000000000000000000000000000000000000000000000000000000000000000000000000000000000000000000000000000000000000000000000000000000000000000000000000000000000000000000000000000000000000000000000000000000000000000000000000000000000000000000000000000000000000000000000000000000000000000000000000000000000000000000000000000000000000000000",
      "type": "0x2",
      "transactionHash": "0xfcc916b7eefd694238a032f58e3e37ea03836b46b429280a3d2f3c5e48d803d9",
      "transactionIndex": "0x1d",
      "blockHash": "0x0000000000000000000000000000000000000000000000000000000000000000",
      "blockNumber": "0x24f7518",
      "gasUsed": "0xac38",
      "effectiveGasPrice": "0x5b8d80",
      "blobGasUsed": "0x364c",
      "from": "0x506888a16695c670579d06a0314cafdd549329fa",
      "to": "0x49f49cfe89050a8f8e48d3a31e33a8e26bc80d1d",
      "contractAddress": null,
      "daFootprintGasScalar": "0x8b",
      "l1BaseFeeScalar": "0x44d",
      "l1BlobBaseFee": "0x1",
      "l1BlobBaseFeeScalar": "0xa118b",
      "l1Fee": "0x53",
      "l1GasPrice": "0xa",
      "l1GasUsed": "0x640"
    },
    {
      "status": "0x1",
      "cumulativeGasUsed": "0x449868",
      "logs": [
        {
          "address": "0x329031e60968c6823056caa8e348bcfc55195a74",
          "topics": [
            "0xdbaaf4c87ce30816c961a81d110622a3227ede77953d4383d514ff88ab2e0fd3",
            "0x0000000000000000000000000000000000000000000000000000000000000006",
            "0x000000000000000000000000506888a16695c670579d06a0314cafdd549329fa"
          ],
          "data": "0x0000000000000000000000000000000000000000000000000000000000000005",
          "blockHash": "0x0000000000000000000000000000000000000000000000000000000000000000",
          "blockNumber": "0x24f7519",
          "blockTimestamp": "0x69b24912",
          "transactionHash": "0xd6d4de2253c5bbd928c6ca7f32ff81d549481f3653477504cf2228877d8c601b",
          "transactionIndex": "0x1b",
          "logIndex": "0x7b",
          "removed": false
        }
      ],
      "logsBloom": "0x00000008000000000000000000800000000000000000000000000000000000000000000004000000000000000000000000000000000400000000000000000000000000000000000000000000000000000000000000000000000000000000000000000000000000000000000000000000000000008000000000000000000000000000000400000000000000000000000000000000000000000000000000000000000000000000000000000000000020000000000000000000000000080000000000000000000000000000000000000000000000000000000080000000000000000800000000000000000000000000000100000000000000000000000000080000",
      "type": "0x2",
      "transactionHash": "0xd6d4de2253c5bbd928c6ca7f32ff81d549481f3653477504cf2228877d8c601b",
      "transactionIndex": "0x1b",
      "blockHash": "0x0000000000000000000000000000000000000000000000000000000000000000",
      "blockNumber": "0x24f7519",
      "gasUsed": "0x2e150",
      "effectiveGasPrice": "0x5b8d80",
      "blobGasUsed": "0x364c",
      "from": "0x506888a16695c670579d06a0314cafdd549329fa",
      "to": "0x329031e60968c6823056caa8e348bcfc55195a74",
      "contractAddress": null,
      "daFootprintGasScalar": "0x8b",
      "l1BaseFeeScalar": "0x44d",
      "l1BlobBaseFee": "0x1",
      "l1BlobBaseFeeScalar": "0xa118b",
      "l1Fee": "0x53",
      "l1GasPrice": "0xa",
      "l1GasUsed": "0x640"
    },
    {
      "status": "0x1",
      "cumulativeGasUsed": "0x25c0c8",
      "logs": [],
      "logsBloom": "0x00000000000000000000000000000000000000000000000000000000000000000000000000000000000000000000000000000000000000000000000000000000000000000000000000000000000000000000000000000000000000000000000000000000000000000000000000000000000000000000000000000000000000000000000000000000000000000000000000000000000000000000000000000000000000000000000000000000000000000000000000000000000000000000000000000000000000000000000000000000000000000000000000000000000000000000000000000000000000000000000000000000000000000000000000000000",
      "type": "0x2",
      "transactionHash": "0xf7f36d7b38422ecfce483d57128c19df6949abefc511e0c29f7a63f00a68c6ed",
      "transactionIndex": "0x7",
      "blockHash": "0x0000000000000000000000000000000000000000000000000000000000000000",
      "blockNumber": "0x24f751a",
      "gasUsed": "0xac38",
      "effectiveGasPrice": "0x5b8d80",
      "blobGasUsed": "0x364c",
      "from": "0x280ed4fbbbe9ccb25b9de910638efd7920023998",
      "to": "0x49f49cfe89050a8f8e48d3a31e33a8e26bc80d1d",
      "contractAddress": null,
      "daFootprintGasScalar": "0x8b",
      "l1BaseFeeScalar": "0x44d",
      "l1BlobBaseFee": "0x1",
      "l1BlobBaseFeeScalar": "0xa118b",
      "l1Fee": "0x53",
      "l1GasPrice": "0xa",
      "l1GasUsed": "0x640"
    },
    {
      "status": "0x1",
      "cumulativeGasUsed": "0x59fa28",
      "logs": [
        {
          "address": "0x329031e60968c6823056caa8e348bcfc55195a74",
          "topics": [
            "0xdbaaf4c87ce30816c961a81d110622a3227ede77953d4383d514ff88ab2e0fd3",
            "0x0000000000000000000000000000000000000000000000000000000000000006",
            "0x000000000000000000000000280ed4fbbbe9ccb25b9de910638efd7920023998"
          ],
          "data": "0x0000000000000000000000000000000000000000000000000000000000000001",
          "blockHash": "0x0000000000000000000000000000000000000000000000000000000000000000",
          "blockNumber": "0x24f751b",
          "blockTimestamp": "0x69b24916",
          "transactionHash": "0xeecd163b0bcb5b0550ca5846ae68fed0b7a1d2ed696d53cc358301aa7303c28b",
          "transactionIndex": "0x23",
          "logIndex": "0x8e",
          "removed": false
        }
      ],
      "logsBloom": "0x00000008000000000000000000800000000000000000000000000000000000000000000004000000000000000000000000000000000400000000000000000000000000000000000000000000000000000000000000000000000000000000000000000000000000001000000000000000000000008000000000000000000000000000000400000000000000000000000000000000000000000000000000000000000000000000000000000020000000000000000000000000000000080000000000000000000000000000000000000000000000000000000080000000000000000000000000000000000000000000000100000000000000000000000000000020",
      "type": "0x2",
      "transactionHash": "0xeecd163b0bcb5b0550ca5846ae68fed0b7a1d2ed696d53cc358301aa7303c28b",
      "transactionIndex": "0x23",
      "blockHash": "0x0000000000000000000000000000000000000000000000000000000000000000",
      "blockNumber": "0x24f751b",
      "gasUsed": "0x13e8c",
      "effectiveGasPrice": "0x5b8d80",
      "blobGasUsed": "0x364c",
      "from": "0x280ed4fbbbe9ccb25b9de910638efd7920023998",
      "to": "0x329031e60968c6823056caa8e348bcfc55195a74",
      "contractAddress": null,
      "daFootprintGasScalar": "0x8b",
      "l1BaseFeeScalar": "0x44d",
      "l1BlobBaseFee": "0x1",
      "l1BlobBaseFeeScalar": "0xa118b",
      "l1Fee": "0x53",
      "l1GasPrice": "0xa",
      "l1GasUsed": "0x640"
    },
    {
      "status": "0x1",
      "cumulativeGasUsed": "0x1e0415",
      "logs": [
        {
          "address": "0x19d59e6940fe3b7ad1c12975f0c0dff3c13a063e",
          "topics": [
            "0xddf252ad1be2c89b69c2b068fc378daa952ba7f163c4a11628f55a4df523b3ef",
            "0x0000000000000000000000000000000000000000000000000000000000000000",
            "0x000000000000000000000000753dfc03b4d37b3a316d0fe5ab9f677c0d3c20f8",
            "0x0000000000000000000000000000000000000000000000000000000000000001"
          ],
          "data": "0x",
          "blockHash": "0x0000000000000000000000000000000000000000000000000000000000000000",
          "blockNumber": "0x24f751c",
          "blockTimestamp": "0x69b24918",
          "transactionHash": "0x3fa040e38228eea4badbc6565fcb9386cee3373b53a259ec3457a2c9d6065d3b",
          "transactionIndex": "0x11",
          "logIndex": "0x18",
          "removed": false
        }
      ],
      "logsBloom": "0x00000000000000000000000000000000000000000000000000000000000000004000000000000000000002000000000000000000000000000000000000040800000000000000000000000008000000000000000000040000000000000000000000000000020000000000000000000800000000000000000000000010000000000000000000000000000000000000000000000000000000000000000000000000000000000000000000000000000000000000000000000000000000000000000000000002000000000000000800000000000000000000000000000000000060000000000000000000000008000000000000000000040000000000000000000000",
      "type": "0x2",
      "transactionHash": "0x3fa040e38228eea4badbc6565fcb9386cee3373b53a259ec3457a2c9d6065d3b",
      "transactionIndex": "0x11",
      "blockHash": "0x0000000000000000000000000000000000000000000000000000000000000000",
      "blockNumber": "0x24f751c",
      "gasUsed": "0xc8d0",
      "effectiveGasPrice": "0x5b8d80",
      "blobGasUsed": "0x364c",
      "from": "0x753dfc03b4d37b3a316d0fe5ab9f677c0d3c20f8",
      "to": "0x19d59e6940fe3b7ad1c12975f0c0dff3c13a063e",
      "contractAddress": null,
      "daFootprintGasScalar": "0x8b",
      "l1BaseFeeScalar": "0x44d",
      "l1BlobBaseFee": "0x1",
      "l1BlobBaseFeeScalar": "0xa118b",
      "l1Fee": "0x53",
      "l1GasPrice": "0xa",
      "l1GasUsed": "0x640"
    },
    {
      "status": "0x1",
      "cumulativeGasUsed": "0x50632b",
      "logs": [
        {
          "address": "0x19d59e6940fe3b7ad1c12975f0c0dff3c13a063e",
          "topics": [
            "0x8c5be1e5ebec7d5bd14f71427d1e84f3dd0314c0f7b2291e5b200ac8c7c3b925",
            "0x000000000000000000000000753dfc03b4d37b3a316d0fe5ab9f677c0d3c20f8",
            "0x000000000000000000000000329031e60968c6823056caa8e348bcfc55195a74",
            "0x0000000000000000000000000000000000000000000000000000000000000001"
          ],
          "data": "0x",
          "blockHash": "0x0000000000000000000000000000000000000000000000000000000000000000",
          "blockNumber": "0x24f751d",
          "blockTimestamp": "0x69b2491a",
          "transactionHash": "0xab97e8b65352f7e3dde52998c94809bc63a5c944f3c04426b0ecd0427028e1b5",
          "transactionIndex": "0x1c",
          "logIndex": "0xe2",
          "removed": false
        }
      ],
      "logsBloom": "0x00000000000000000000000000000000000000000000000000000000000000004000000000000000000002000000000000000000000000000000000000240800000000000000000000800000000000000000000000040000000000000000000000000000000000000000000000000000000000000000000000000000000000000000000000000000000000000000000000000000000000000000000000000000020000000000000000000000000000000000000000000000000000000000000000000000000000000000000800000000000000000000000000000000020040040010000000000000000008000000000000000000040000000000000000000000",
      "type": "0x2",
      "transactionHash": "0xab97e8b65352f7e3dde52998c94809bc63a5c944f3c04426b0ecd0427028e1b5",
      "transactionIndex": "0x1c",
      "blockHash": "0x0000000000000000000000000000000000000000000000000000000000000000",
      "blockNumber": "0x24f751d",
      "gasUsed": "0xbdfa",
      "effectiveGasPrice": "0x5b8d80",
      "blobGasUsed": "0x364c",
      "from": "0x753dfc03b4d37b3a316d0fe5ab9f677c0d3c20f8",
      "to": "0x19d59e6940fe3b7ad1c12975f0c0dff3c13a063e",
      "contractAddress": null,
      "daFootprintGasScalar": "0x8b",
      "l1BaseFeeScalar": "0x44d",
      "l1BlobBaseFee": "0x1",
      "l1BlobBaseFeeScalar": "0xa118b",
      "l1Fee": "0x1cc",
      "l1GasPrice": "0xa",
      "l1GasUsed": "0x640"
    },
    {
      "status": "0x1",
      "cumulativeGasUsed": "0x2f8da5",
      "logs": [
        {
          "address": "0x19d59e6940fe3b7ad1c12975f0c0dff3c13a063e",
          "topics": [
            "0xddf252ad1be2c89b69c2b068fc378daa952ba7f163c4a11628f55a4df523b3ef",
            "0x000000000000000000000000753dfc03b4d37b3a316d0fe5ab9f677c0d3c20f8",
            "0x000000000000000000000000329031e60968c6823056caa8e348bcfc55195a74",
            "0x0000000000000000000000000000000000000000000000000000000000000001"
          ],
          "data": "0x",
          "blockHash": "0xe9285fdba91318413795ef86d1cb0e89df201c8e84084ab47920ecdd50003e71",
          "blockNumber": "0x24f751e",
          "blockTimestamp": "0x69b2491c",
          "transactionHash": "0x41486ee39ac7228108bde8d1e9d8ade01f204868d27382d22d3d4000c3ee28f3",
          "transactionIndex": "0x14",
          "logIndex": "0x3d",
          "removed": false
        },
        {
          "address": "0x329031e60968c6823056caa8e348bcfc55195a74",
          "topics": [
            "0xc8c0997fd67965d4307a1f999729fd9602e5ed4aeda0653de98b8b0d3dc34d9c",
            "0x0000000000000000000000000000000000000000000000000000000000000007",
            "0x000000000000000000000000753dfc03b4d37b3a316d0fe5ab9f677c0d3c20f8"
          ],
          "data": "0x00000000000000000000000019d59e6940fe3b7ad1c12975f0c0dff3c13a063e000000000000000000000000000000000000000000000000000000000000000100000000000000000000000000000000000000000000000000000000000000010000000000000000000000000000000000000000000000000000000069b249d000000000000000000000000000000000000000000000000000000000000000c0000000000000000000000000000000000000000000000000000000000000000000000000000000000000000000000000000000000000000000000000000000084d6f636b204e4654000000000000000000000000000000000000000000000000",
          "blockHash": "0xe9285fdba91318413795ef86d1cb0e89df201c8e84084ab47920ecdd50003e71",
          "blockNumber": "0x24f751e",
          "blockTimestamp": "0x69b2491c",
          "transactionHash": "0x41486ee39ac7228108bde8d1e9d8ade01f204868d27382d22d3d4000c3ee28f3",
          "transactionIndex": "0x14",
          "logIndex": "0x3e",
          "removed": false
        }
      ],
      "logsBloom": "0x00100008000000000000000000000000000000000000000000000000000000004000000004000000000002000000000040001000000000004000000000040800000020000000000000800008000000000000000000040000000000000000000000000000000000000000000000000000000000000000000000000010000000000000000000000000000000000000000000000000000000000000000000000000000000000000000000000000000000000000000000000000000000000000000000000002000000000000000800000000000000000000000080000100020040040000000000000000000008000000000000000000040000000000000000000000",
      "type": "0x2",
      "transactionHash": "0x41486ee39ac7228108bde8d1e9d8ade01f204868d27382d22d3d4000c3ee28f3",
      "transactionIndex": "0x14",
      "blockHash": "0xe9285fdba91318413795ef86d1cb0e89df201c8e84084ab47920ecdd50003e71",
      "blockNumber": "0x24f751e",
      "gasUsed": "0x27dfe",
      "effectiveGasPrice": "0x5b8d80",
      "blobGasUsed": "0x398e",
      "from": "0x753dfc03b4d37b3a316d0fe5ab9f677c0d3c20f8",
      "to": "0x329031e60968c6823056caa8e348bcfc55195a74",
      "contractAddress": null,
      "daFootprintGasScalar": "0x8b",
      "l1BaseFeeScalar": "0x44d",
      "l1BlobBaseFee": "0x1",
      "l1BlobBaseFeeScalar": "0xa118b",
      "l1Fee": "0x58",
      "l1GasPrice": "0xa",
      "l1GasUsed": "0x6a4"
    },
    {
      "status": "0x1",
      "cumulativeGasUsed": "0x771c21",
      "logs": [],
      "logsBloom": "0x00000000000000000000000000000000000000000000000000000000000000000000000000000000000000000000000000000000000000000000000000000000000000000000000000000000000000000000000000000000000000000000000000000000000000000000000000000000000000000000000000000000000000000000000000000000000000000000000000000000000000000000000000000000000000000000000000000000000000000000000000000000000000000000000000000000000000000000000000000000000000000000000000000000000000000000000000000000000000000000000000000000000000000000000000000000",
      "type": "0x2",
      "transactionHash": "0x3e32d3d4f26db5aae3d3fe6202bb4a71f1da15589583e4a0e721c3ac809b9232",
      "transactionIndex": "0x23",
      "blockHash": "0x0000000000000000000000000000000000000000000000000000000000000000",
      "blockNumber": "0x24f751f",
      "gasUsed": "0xac38",
      "effectiveGasPrice": "0x5b8d80",
      "blobGasUsed": "0x364c",
      "from": "0x506888a16695c670579d06a0314cafdd549329fa",
      "to": "0x49f49cfe89050a8f8e48d3a31e33a8e26bc80d1d",
      "contractAddress": null,
      "daFootprintGasScalar": "0x8b",
      "l1BaseFeeScalar": "0x44d",
      "l1BlobBaseFee": "0x1",
      "l1BlobBaseFeeScalar": "0xa118b",
      "l1Fee": "0x53",
      "l1GasPrice": "0xa",
      "l1GasUsed": "0x640"
    },
    {
      "status": "0x1",
      "cumulativeGasUsed": "0x4515a2",
      "logs": [
        {
          "address": "0x329031e60968c6823056caa8e348bcfc55195a74",
          "topics": [
            "0xdbaaf4c87ce30816c961a81d110622a3227ede77953d4383d514ff88ab2e0fd3",
            "0x0000000000000000000000000000000000000000000000000000000000000007",
            "0x000000000000000000000000506888a16695c670579d06a0314cafdd549329fa"
          ],
          "data": "0x0000000000000000000000000000000000000000000000000000000000000001",
          "blockHash": "0x471cd2f838e0da0f941d6419a11cf3fde1c0147afa6ade3c45de6654763caa72",
          "blockNumber": "0x24f7520",
          "blockTimestamp": "0x69b24920",
          "transactionHash": "0x56b09da434c4c05995898a1819fd501348524489821f04362d876e04315bd401",
          "transactionIndex": "0x1e",
          "logIndex": "0x4b",
          "removed": false
        }
      ],
      "logsBloom": "0x00000008000000000000000000800000000000000000000000000000000000000000000004000000000000000000000000001000000000000000000000000000000020000000000000000000000000000000000000000000000000000000000000000000000000000000000000000000000000008000000000000000000000000000000000000000000000000000000000000000000000000000000000000000000000000000000000000000000020000000000000000000000000000000000000000000000000000000000000000000000000000000000080000100000000000800000000000000000000000000000100000000000000000000000000080000",
      "type": "0x2",
      "transactionHash": "0x56b09da434c4c05995898a1819fd501348524489821f04362d876e04315bd401",
      "transactionIndex": "0x1e",
      "blockHash": "0x471cd2f838e0da0f941d6419a11cf3fde1c0147afa6ade3c45de6654763caa72",
      "blockNumber": "0x24f7520",
      "gasUsed": "0x18158",
      "effectiveGasPrice": "0x5b8d80",
      "blobGasUsed": "0x364c",
      "from": "0x506888a16695c670579d06a0314cafdd549329fa",
      "to": "0x329031e60968c6823056caa8e348bcfc55195a74",
      "contractAddress": null,
      "daFootprintGasScalar": "0x8b",
      "l1BaseFeeScalar": "0x44d",
      "l1BlobBaseFee": "0x1",
      "l1BlobBaseFeeScalar": "0xa118b",
      "l1Fee": "0x53",
      "l1GasPrice": "0xa",
      "l1GasUsed": "0x640"
    },
    {
      "status": "0x1",
      "cumulativeGasUsed": "0x4f6fb3",
      "logs": [],
      "logsBloom": "0x00000000000000000000000000000000000000000000000000000000000000000000000000000000000000000000000000000000000000000000000000000000000000000000000000000000000000000000000000000000000000000000000000000000000000000000000000000000000000000000000000000000000000000000000000000000000000000000000000000000000000000000000000000000000000000000000000000000000000000000000000000000000000000000000000000000000000000000000000000000000000000000000000000000000000000000000000000000000000000000000000000000000000000000000000000000",
      "type": "0x2",
      "transactionHash": "0x800f52746b0775f25d75d1c784b643eab25793c611acb33aa238661853a0ec9a",
      "transactionIndex": "0x1e",
      "blockHash": "0x0000000000000000000000000000000000000000000000000000000000000000",
      "blockNumber": "0x24f7521",
      "gasUsed": "0xac38",
      "effectiveGasPrice": "0x5b8d80",
      "blobGasUsed": "0x364c",
      "from": "0x280ed4fbbbe9ccb25b9de910638efd7920023998",
      "to": "0x49f49cfe89050a8f8e48d3a31e33a8e26bc80d1d",
      "contractAddress": null,
      "daFootprintGasScalar": "0x8b",
      "l1BaseFeeScalar": "0x44d",
      "l1BlobBaseFee": "0x1",
      "l1BlobBaseFeeScalar": "0xa118b",
      "l1Fee": "0x53",
      "l1GasPrice": "0xa",
      "l1GasUsed": "0x640"
    },
    {
      "status": "0x1",
      "cumulativeGasUsed": "0x45c775",
      "logs": [
        {
          "address": "0x329031e60968c6823056caa8e348bcfc55195a74",
          "topics": [
            "0xdbaaf4c87ce30816c961a81d110622a3227ede77953d4383d514ff88ab2e0fd3",
            "0x0000000000000000000000000000000000000000000000000000000000000007",
            "0x000000000000000000000000280ed4fbbbe9ccb25b9de910638efd7920023998"
          ],
          "data": "0x0000000000000000000000000000000000000000000000000000000000000001",
          "blockHash": "0x0000000000000000000000000000000000000000000000000000000000000000",
          "blockNumber": "0x24f7522",
          "blockTimestamp": "0x69b24924",
          "transactionHash": "0x7b19c45143d732d487d8aae2ffe4b264797c7a1358ab215a98a92d5dd12446f9",
          "transactionIndex": "0x1d",
          "logIndex": "0x96",
          "removed": false
        }
      ],
      "logsBloom": "0x00000008000000000000000000800000000000000000000000000000000000000000000004000000000000000000000000001000000000000000000000000000000020000000000000000000000000000000000000000000000000000000000000000000000000001000000000000000000000008000000000000000000000000000000000000000000000000000000000000000000000000000000000000000000000000000000000000020000000000000000000000000000000000000000000000000000000000000000000000000000000000000000080000100000000000000000000000000000000000000000100000000000000000000000000000020",
      "type": "0x2",
      "transactionHash": "0x7b19c45143d732d487d8aae2ffe4b264797c7a1358ab215a98a92d5dd12446f9",
      "transactionIndex": "0x1d",
      "blockHash": "0x0000000000000000000000000000000000000000000000000000000000000000",
      "blockNumber": "0x24f7522",
      "gasUsed": "0x13e8c",
      "effectiveGasPrice": "0x5b8d80",
      "blobGasUsed": "0x364c",
      "from": "0x280ed4fbbbe9ccb25b9de910638efd7920023998",
      "to": "0x329031e60968c6823056caa8e348bcfc55195a74",
      "contractAddress": null,
      "daFootprintGasScalar": "0x8b",
      "l1BaseFeeScalar": "0x44d",
      "l1BlobBaseFee": "0x1",
      "l1BlobBaseFeeScalar": "0xa118b",
      "l1Fee": "0x53",
      "l1GasPrice": "0xa",
      "l1GasUsed": "0x640"
    },
    {
      "status": "0x1",
      "cumulativeGasUsed": "0x83bfb",
      "logs": [
        {
          "address": "0x19d59e6940fe3b7ad1c12975f0c0dff3c13a063e",
          "topics": [
            "0xddf252ad1be2c89b69c2b068fc378daa952ba7f163c4a11628f55a4df523b3ef",
            "0x0000000000000000000000000000000000000000000000000000000000000000",
            "0x000000000000000000000000753dfc03b4d37b3a316d0fe5ab9f677c0d3c20f8",
            "0x0000000000000000000000000000000000000000000000000000000000000002"
          ],
          "data": "0x",
          "blockHash": "0x0000000000000000000000000000000000000000000000000000000000000000",
          "blockNumber": "0x24f7523",
          "blockTimestamp": "0x69b24926",
          "transactionHash": "0xd09681de6f493c4e977848b985926040c9a89383b235a7c7e9e35efe6df65379",
          "transactionIndex": "0xa",
          "logIndex": "0x4",
          "removed": false
        }
      ],
      "logsBloom": "0x04000000000000000000000000000000000000000000000000000000000000004000000000000000000002000000000000000000000000000000000000000800000000000000000000000008000000000000000000000000000000000000000000000000020000000000000000000800000000000000000000000010000000000000000000000000000000000000000000000000000000000000000000000000000000000000000000000100000000000000000000000000000000000000000000000002000000000000000800000000000000000000000000000000000020000000000000000000000008000000000000000000048000000000000000000000",
      "type": "0x2",
      "transactionHash": "0xd09681de6f493c4e977848b985926040c9a89383b235a7c7e9e35efe6df65379",
      "transactionIndex": "0xa",
      "blockHash": "0x0000000000000000000000000000000000000000000000000000000000000000",
      "blockNumber": "0x24f7523",
      "gasUsed": "0xc8d0",
      "effectiveGasPrice": "0x5b8d80",
      "blobGasUsed": "0x364c",
      "from": "0x753dfc03b4d37b3a316d0fe5ab9f677c0d3c20f8",
      "to": "0x19d59e6940fe3b7ad1c12975f0c0dff3c13a063e",
      "contractAddress": null,
      "daFootprintGasScalar": "0x8b",
      "l1BaseFeeScalar": "0x44d",
      "l1BlobBaseFee": "0x1",
      "l1BlobBaseFeeScalar": "0xa118b",
      "l1Fee": "0x53",
      "l1GasPrice": "0xa",
      "l1GasUsed": "0x640"
    },
    {
      "status": "0x1",
      "cumulativeGasUsed": "0x432f6b",
      "logs": [
        {
          "address": "0x19d59e6940fe3b7ad1c12975f0c0dff3c13a063e",
          "topics": [
            "0x8c5be1e5ebec7d5bd14f71427d1e84f3dd0314c0f7b2291e5b200ac8c7c3b925",
            "0x000000000000000000000000753dfc03b4d37b3a316d0fe5ab9f677c0d3c20f8",
            "0x000000000000000000000000329031e60968c6823056caa8e348bcfc55195a74",
            "0x0000000000000000000000000000000000000000000000000000000000000002"
          ],
          "data": "0x",
          "blockHash": "0x12d46df9ade433c434fdd2e893516da0585932ff7632f77dae56728d9ececc56",
          "blockNumber": "0x24f7524",
          "blockTimestamp": "0x69b24928",
          "transactionHash": "0x9fa574e92aea9ef74bb592d946715ab29f02542f8f905aa1df9190e913604449",
          "transactionIndex": "0x1b",
          "logIndex": "0x59",
          "removed": false
        }
      ],
      "logsBloom": "0x04000000000000000000000000000000000000000000000000000000000000004000000000000000000002000000000000000000000000000000000000200800000000000000000000800000000000000000000000000000000000000000000000000000000000000000000000000000000000000000000000000000000000000000000000000000000000000000000000000000000000000000000000000000020000000000000000000100000000000000000000000000000000000000000000000000000000000000000800000000000000000000000000000000020000040010000000000000000008000000000000000000048000000000000000000000",
      "type": "0x2",
      "transactionHash": "0x9fa574e92aea9ef74bb592d946715ab29f02542f8f905aa1df9190e913604449",
      "transactionIndex": "0x1b",
      "blockHash": "0x12d46df9ade433c434fdd2e893516da0585932ff7632f77dae56728d9ececc56",
      "blockNumber": "0x24f7524",
      "gasUsed": "0xbdfa",
      "effectiveGasPrice": "0x5b8d80",
      "blobGasUsed": "0x364c",
      "from": "0x753dfc03b4d37b3a316d0fe5ab9f677c0d3c20f8",
      "to": "0x19d59e6940fe3b7ad1c12975f0c0dff3c13a063e",
      "contractAddress": null,
      "daFootprintGasScalar": "0x8b",
      "l1BaseFeeScalar": "0x44d",
      "l1BlobBaseFee": "0x1",
      "l1BlobBaseFeeScalar": "0xa118b",
      "l1Fee": "0x53",
      "l1GasPrice": "0xa",
      "l1GasUsed": "0x640"
    },
    {
      "status": "0x1",
      "cumulativeGasUsed": "0x48070",
      "logs": [
        {
          "address": "0x19d59e6940fe3b7ad1c12975f0c0dff3c13a063e",
          "topics": [
            "0xddf252ad1be2c89b69c2b068fc378daa952ba7f163c4a11628f55a4df523b3ef",
            "0x000000000000000000000000753dfc03b4d37b3a316d0fe5ab9f677c0d3c20f8",
            "0x000000000000000000000000329031e60968c6823056caa8e348bcfc55195a74",
            "0x0000000000000000000000000000000000000000000000000000000000000002"
          ],
          "data": "0x",
          "blockHash": "0x0000000000000000000000000000000000000000000000000000000000000000",
          "blockNumber": "0x24f7526",
          "blockTimestamp": "0x69b2492c",
          "transactionHash": "0x51ff4cc1e38f9e37125214ebd7a141ecd57a798eecf2eecbfcb5639a3fa2b102",
          "transactionIndex": "0x4",
          "logIndex": "0x0",
          "removed": false
        },
        {
          "address": "0x329031e60968c6823056caa8e348bcfc55195a74",
          "topics": [
            "0xc8c0997fd67965d4307a1f999729fd9602e5ed4aeda0653de98b8b0d3dc34d9c",
            "0x0000000000000000000000000000000000000000000000000000000000000008",
            "0x000000000000000000000000753dfc03b4d37b3a316d0fe5ab9f677c0d3c20f8"
          ],
          "data": "0x00000000000000000000000019d59e6940fe3b7ad1c12975f0c0dff3c13a063e000000000000000000000000000000000000000000000000000000000000000100000000000000000000000000000000000000000000000000000000000000020000000000000000000000000000000000000000000000000000000069b249e000000000000000000000000000000000000000000000000000000000000000c0000000000000000000000000000000000000000000000000000000000000000000000000000000000000000000000000000000000000000000000000000000084d6f636b204e4654000000000000000000000000000000000000000000000000",
          "blockHash": "0x0000000000000000000000000000000000000000000000000000000000000000",
          "blockNumber": "0x24f7526",
          "blockTimestamp": "0x69b2492c",
          "transactionHash": "0x51ff4cc1e38f9e37125214ebd7a141ecd57a798eecf2eecbfcb5639a3fa2b102",
          "transactionIndex": "0x4",
          "logIndex": "0x1",
          "removed": false
        }
      ],
      "logsBloom": "0x04100008000000000000000000000000000000000000000000000000000000004000000004000000000002000000000040000000000080004000000000000800000000000000000000800008000000000000000000000000000000000000000000000000000000000000000000000000000000000000000000000010000000000080000000000000000000000000000000000000000000000000000000000000000000000000000000000100000000000000000000000000000000000000000040000002000000000000000800000000000000000000000080000000020000040000000000000000000008000000000000000000048000000000000000000000",
      "type": "0x2",
      "transactionHash": "0x51ff4cc1e38f9e37125214ebd7a141ecd57a798eecf2eecbfcb5639a3fa2b102",
      "transactionIndex": "0x4",
      "blockHash": "0x0000000000000000000000000000000000000000000000000000000000000000",
      "blockNumber": "0x24f7526",
      "gasUsed": "0x27dfe",
      "effectiveGasPrice": "0x5b8d80",
      "blobGasUsed": "0x398e",
      "from": "0x753dfc03b4d37b3a316d0fe5ab9f677c0d3c20f8",
      "to": "0x329031e60968c6823056caa8e348bcfc55195a74",
      "contractAddress": null,
      "daFootprintGasScalar": "0x8b",
      "l1BaseFeeScalar": "0x44d",
      "l1BlobBaseFee": "0x1",
      "l1BlobBaseFeeScalar": "0xa118b",
      "l1Fee": "0x53",
      "l1GasPrice": "0xa",
      "l1GasUsed": "0x6a4"
    },
    {
      "status": "0x1",
      "cumulativeGasUsed": "0x245911",
      "logs": [],
      "logsBloom": "0x00000000000000000000000000000000000000000000000000000000000000000000000000000000000000000000000000000000000000000000000000000000000000000000000000000000000000000000000000000000000000000000000000000000000000000000000000000000000000000000000000000000000000000000000000000000000000000000000000000000000000000000000000000000000000000000000000000000000000000000000000000000000000000000000000000000000000000000000000000000000000000000000000000000000000000000000000000000000000000000000000000000000000000000000000000000",
      "type": "0x2",
      "transactionHash": "0x8369913a8e4fc63d55af61ba2d30818a1aee3cfc0035d217e942cbbf968d480b",
      "transactionIndex": "0xe",
      "blockHash": "0x366bf4c90c41759522e7671af0e4cefe1bb8c501f69fbdb264a9bd84c35c25ed",
      "blockNumber": "0x24f7527",
      "gasUsed": "0xac38",
      "effectiveGasPrice": "0x5b8d80",
      "blobGasUsed": "0x364c",
      "from": "0x506888a16695c670579d06a0314cafdd549329fa",
      "to": "0x49f49cfe89050a8f8e48d3a31e33a8e26bc80d1d",
      "contractAddress": null,
      "daFootprintGasScalar": "0x8b",
      "l1BaseFeeScalar": "0x44d",
      "l1BlobBaseFee": "0x1",
      "l1BlobBaseFeeScalar": "0xa118b",
      "l1Fee": "0x53",
      "l1GasPrice": "0xa",
      "l1GasUsed": "0x640"
    },
    {
      "status": "0x1",
      "cumulativeGasUsed": "0x176956",
      "logs": [
        {
          "address": "0x329031e60968c6823056caa8e348bcfc55195a74",
          "topics": [
            "0xdbaaf4c87ce30816c961a81d110622a3227ede77953d4383d514ff88ab2e0fd3",
            "0x0000000000000000000000000000000000000000000000000000000000000008",
            "0x000000000000000000000000506888a16695c670579d06a0314cafdd549329fa"
          ],
          "data": "0x0000000000000000000000000000000000000000000000000000000000000001",
          "blockHash": "0x0000000000000000000000000000000000000000000000000000000000000000",
          "blockNumber": "0x24f7528",
          "blockTimestamp": "0x69b24930",
          "transactionHash": "0x0ceeedf843f7ebb789130c716dbf11b9bed6507833a90b23f93f4563bf2c1407",
          "transactionIndex": "0xc",
          "logIndex": "0x1d",
          "removed": false
        }
      ],
      "logsBloom": "0x00000008000000000000000000800000000000000000000000000000000000000000000004000000000000000000000000000000000080000000000000000000000000000000000000000000000000000000000000000000000000000000000000000000000000000000000000000000000000008000000000000000000000000080000000000000000000000000000000000000000000000000000000000000000000000000000000000000000020000000000000000000000000000000000040000000000000000000000000000000000000000000000080000000000000000800000000000000000000000000000100000000000000000000000000080000",
      "type": "0x2",
      "transactionHash": "0x0ceeedf843f7ebb789130c716dbf11b9bed6507833a90b23f93f4563bf2c1407",
      "transactionIndex": "0xc",
      "blockHash": "0x0000000000000000000000000000000000000000000000000000000000000000",
      "blockNumber": "0x24f7528",
      "gasUsed": "0x18158",
      "effectiveGasPrice": "0x5b8d80",
      "blobGasUsed": "0x364c",
      "from": "0x506888a16695c670579d06a0314cafdd549329fa",
      "to": "0x329031e60968c6823056caa8e348bcfc55195a74",
      "contractAddress": null,
      "daFootprintGasScalar": "0x8b",
      "l1BaseFeeScalar": "0x44d",
      "l1BlobBaseFee": "0x1",
      "l1BlobBaseFeeScalar": "0xa118b",
      "l1Fee": "0x53",
      "l1GasPrice": "0xa",
      "l1GasUsed": "0x640"
    }
  ],
  "libraries": [],
  "pending": [],
  "returns": {},
  "timestamp": 1773291822565,
  "chain": 84532,
  "commit": "23ccc93"
}